:1000000000800020BD010000B51700007917000036
:1000100079170000791700007917000079170000A0
:10002000791700007917000079170000B517000054
:10003000B517000079170000B51700006917000018
:10004000B5170000B5170000B5170000B517000080
:10005000B5170000B5170000B5170000B517000070
:10006000B5170000B5170000B5170000B517000060
:10007000B5170000B5170000B5170000B517000050
:10008000B5170000B5170000B5170000B517000040
:10009000B5170000B5170000B5170000B517000030
:1000A000B5170000B5170000B5170000B517000020
:1000B000B5170000B5170000B5170000B517000010
:1000C000B5170000B5170000B5170000B517000000
:1000D000B5170000B5170000B5170000B5170000F0
:1000E000B5170000B5170000B5170000B5170000E0
:1000F000B5170000F51D0000B5170000ED24000045
:10010000B5170000152A0000B5170000B51700004C
:10011000B5170000B5170000B5170000B5170000AF
:10012000B5170000B5170000B5170000B51700009F
:10013000B5170000B5170000B5170000B51700008F
:10014000B5170000B5170000B5170000B51700007F
:10015000B5170000B5170000B5170000B51700006F
:10016000B5170000390B0000B5170000B5170000E7
:10017000B5170000B5170000B5170000B51700004F
:10018000B5170000B5170000B5170000B51700003F
:10019000B5170000B5170000B5170000B51700002F
:1001A000B5170000B5170000B5170000B51700001F
:1001B000B5170000B5170000B5170000574B4CF2FB
:1001C000205210B51A804DF628121A8000BF00BFC9
:1001D00001F0F4FA524B4FF010621A60514A9A60E3
:1001E000514ADA60A3F53043203B1A6812F480725A
:1001F00004D14E490A604FF4A8521A604C4B1A7849
:10020000110703D51A7842F008021A70494B4A4C7C
:100210004A482A221A704A4A00239918A14203D256
:10022000195899500433F8E7464B474900228B424E
:1002300002D243F8042BFAE74448454900235A58B0
:100240001A500433B3F5DE7FF9D1424B424A802184
:1002500003F8011B9342FBD1404B3C4A1A60404BD0
:100260000A221A70A3F5805324225A70A0221A7011
:100270009A799207FCD59A79D406FCD4394A9379B5
:1002800003F00C03082B374BF9D105221A714322D6
:100290005A719A799006FCD5324A9179314B4906C8
:1002A000FBD5314A4FF08171116005215160202248
:1002B0001A709A7902F00C020C2AFAD12B4B2C4AB4
:1002C0001A602C4B2C4A1A6000225A60072243F80D
:1002D000042C2A4AC3F80C2D62B600F0EFFA134B37
:1002E0001B68DA0705D5264800F026F9254B264A73
:1002F0001A60264B1B785B0609D5224C224A2368DC
:10030000934204D11E4800F017F90023236004F043
:100310007DFF01F059FA01F057F9FEE70E20054084
:1003200030800440823F04000100002B14D00340C1
:1003300002D0074000E00740408CFF1F6C580000CF
:100340006087FF1F408CFF1F448FFF1F0082FF1F2D
:100350000000000000E400E05FE400E008ED00E0E1
:1003600000500640004006404480044004800440A1
:10037000C010050014E000E03F190100000020203B
:10038000D530E9571CE00340A5C3945A00F007405C
:10039000FFFFFFFFFFFFFFFFFFFFFFFFFFFFFFFF6D
:1003A000FFFFFFFFFFFFFFFFFFFFFFFFFFFFFFFF5D
:1003B000FFFFFFFFFFFFFFFFFFFFFFFFFFFFFFFF4D
:1003C000FFFFFFFFFFFFFFFFFFFFFFFFFFFFFFFF3D
:1003D000FFFFFFFFFFFFFFFFFFFFFFFFFFFFFFFF2D
:1003E000FFFFFFFFFFFFFFFFFFFFFFFFFFFFFFFF1D
:1003F000FFFFFFFFFFFFFFFFFFFFFFFFFFFFFFFF0D
:10040000FFFFFFFFFFFFFFFFFFFFFFFFFEFFFFFFFD
:1004100010B5054C237833B9044B13B10448AFF33E
:1004200000800123237010BD408CFF1F00000000DE
:100430006C58000008B5064B1BB106480649AFF3DF
:1004400000800648036813B1054B03B1984708BD07
:10045000000000006C580000448CFF1F408CFF1F00
:100460000000000008B50C2000F076F808BD00BFC1
:1004700038B51D4C206804F069F802F0B7FD18A3E8
:10048000D3E9002304F0B6F80022184B03F000FF74
:1004900004F072FB04F094FE0146282000F0DCF822
:1004A0002068134B196804F0BDFB0446114904F0A1
:1004B00073FE10B90C4B1C6002E000220A4B1A605C
:1004C0000D4D0E4C00F0C0F92A682368801A834253
:1004D000F8D8134408490B6038BD00BFAFF3008063
:1004E00000000040D96493405C8CFF1F0000A040D6
:1004F000648CFF1FE40FC940608CFF1F6087FF1FE3
:1005000008B5084B186804F041FC074904F092FC58
:10051000064904F043FD064B186000F095F9054BC1
:10052000186008BD6087FF1F855944450050C347C8
:10053000648CFF1F608CFF1F044B00221A6004496B
:100540000A60044A106010221A60704714D00340F9
:1005500004D0034000D0034018B1102828BF102059
:1005600000E00120014B1870704700BF6487FF1F37
:1005700021281ED80F4B53F8303093F8802212F008
:10058000FF0F08D019B1012283F8802070470122A3
:1005900083F800217047074B03EBC000436821B18B
:1005A0001A6842F003021A6070471A6822F00202C9
:1005B0001A607047B453000021284AD8254B03EB3A
:1005C000C0035B68012911D004291DD0214A52F8CB
:1005D0003020002082F8800200292FD0022931D05B
:1005E00003291FD040F203121A607047194A52F8CB
:1005F0003020012182F880124FF4A2721A601A682A
:1006000022F020021A607047124A52F8302001216D
:1006100082F880124FF4A2721A601A6842F0200227
:100620001A6070474FF480721A601A6842F0020232
:100630001A601A6822F001021A6070474FF4807243
:100640001A6070474FF480721A601A6842F0030211
:100650001A607047B453000010B5044628280FD123
:100660005D4B1B780B2B03D8C3F10C03994003E0BF
:100670000C2B84BF0C3B1941084601F059F810BD02
:10068000554B1B78012202FA03F0002908DC2046B2
:100690000021FFF76DFF20460121FFF78DFF10BD00
:1006A0000A46884208D820460121FFF761FF20460C
:1006B0000121FFF781FF10BDE01EC0B2012806D85E
:1006C0004648006800FB011222FA03F310E0202CD8
:1006D00001D0192C06D14248006800FB022222FA00
:1006E00003F305E03F48006800FB011222FA03F320
:1006F000E01E1D2864D8DFE800F0474E402B6363FE
:100700001D2463636363636363636332390F16633A
:100710005C63636363636355334A136040F244422E
:10072000324B1A6010BD324A136040F24442314BE2
:100730001A6010BD304A136040F244422F4B1A60D9
:1007400010BD2F4A136040F244422E4B1A6010BD78
:100750002D4A136040F244422C4B1A6010BD2C4AC3
:10076000136040F244422B4B1A6010BD2A4A1360BA
:1007700040F24442294B1A6010BD294A136040F2EE
:100780004442284B1A6010BD274A13604FF451723F
:10079000264B1A6010BD264A13604FF45172254B48
:1007A0001A6010BD244A13604FF45172234B1A6033
:1007B00010BD234A13604FF45172224B1A6010BDD2
:1007C00020467F29D4BF00210121FFF7D1FE20461A
:1007D0000121FFF7F1FE10BD6487FF1F0890034061
:1007E00008800B40088003401080034004B00440A0
:1007F0001880034008B00440208003400CB004403F
:100800002880034010B004403080034010C00440F2
:100810003880034014C004404080034018C00440A6
:10082000488003401CC004401090034030900440B6
:10083000189003403490044010800B4048A00440BE
:1008400018800B404CA0044072B60D4B1B680D4A3B
:1008500012680D49096862B611F0806F02D0322B20
:1008600088BF0132C3F58C3303F23F130749A1FB64
:1008700003031B094FF47A7000FB0230704700BF7E
:1008800018E000E0688CFF1F04ED00E0398EE338CB
:1008900038B50546FFF7D8FF044625B938BD013DF8
:1008A0000AD004F57A74FFF7CFFF001BB0F57A7F0A
:1008B000F5D200F091FEF6E738BD00BF10B5254B2C
:1008C0004FF400021A604FF080721A604FF000720D
:1008D0001A604FF080621A604FF000621A600020C8
:1008E0001D4B186048F6FF710433196028231B4A1A
:1008F0001360083213600832136008321360083244
:100900001360083213600832136008321360092242
:10091000134C226004F580540434206004342160B8
:100920000434236008342360143C226004F5FE2460
:10093000043420600B4801600B490B6008310B60E8
:100940000A4B1A6000F06AFEFA20FFF7A1FF00F0E0
:1009500073FC10BD08E100E0048003400C800340FC
:100960000080034008800B400C800B4000800B404F
:1009700030B40E4B1B7843F002020D4C04EBC20462
:1009800060600C48007800280CBF8824C82444EA22
:100990000141074D45F8321080F00100054A107002
:1009A00083F00103014A137030BC7047D48CFF1FE1
:1009B0000080FF1F4D8DFF1F10B4431E032B11D865
:1009C00072B60A4A52F8230050B14268074941F80A
:1009D0002320074A32F813400188611A22F81310C5
:1009E00062B600E000205DF8044B7047C48CFF1F26
:1009F000308FFF1F013803280DD872B6074B53F80C
:100A000020302BB1002001305B68002BFBD100E0CF
:100A1000002062B670470020704700BF188DFF1F8E
:100A200038B572B601231B491B4C5A1812F8012C19
:100A300012F0080F24D09A0054F832506DB9164BBA
:100A400003EBC20108304860144943F83210144BDC
:100A50001A78013A1A7062B638BD42F0010254F8B1
:100A600032506DB90C4B03EBC201083048600D49A0
:100A700043F832100A4B1A78013A1A7062B638BD40
:100A80000133052BD1D162B60022054B1A7000F05C
:100A900037FC38BDC45400000080FF1F88004000B0
:100AA000428DFF1FC800400010B4431E032B37D8EF
:100AB000400140F010001C4A104472B61B4AD25C40
:100AC000032A09D8DFE802F019021B0508300222C8
:100AD00016E00830042213E0154A52F823201AB910
:100AE000134A42F8231003E0124A52F823205160BF
:100AF000104A42F8231062B612E0032200E00522F9
:100B00000A4CE25401F10803436000F00803002B93
:100B10000CBF8823C8230A8843EA0243036062B6F5
:100B20005DF8044B704700BF0080FF1F808CFF1FE3
:100B3000188DFF1F288DFF1F2DE9F84FA34CDFF8FC
:100B4000E092DFF8E0A2DFF8E0B22578EDB215F030
:100B5000040F1DD09E4B1B7813F0FF0F16D09D4B3A
:100B60001B7803F0FF022BB1531EDBB2994A1370BE
:100B700003B900BE984B1B7803F0FF0233B1531E3C
:100B8000DBB2954A13700BB900F0FAFC0423237012
:100B900015F0080F00F0E48299F80030DBB21D096F
:100BA00040F021828D4D9E0805EBC6035A6855F82A
:100BB0003630C3F38303013B0C2B00F21082DFE8D5
:100BC00013F0CB01CB010E020E020E020E020E023A
:100BD0000E02E8010E020E020E020D00804913689B
:100BE0000B6052684A607F4A45F8362000227E49F1
:100BF0000A607A490A618A6101217C4A11709BB2BC
:100C000040F28162934218D8B3F5D06F2ED2B3F57B
:100C1000817F00F01E8106D8802B00F0C980822BD6
:100C200000F0CC8066E140F20232934200F026816F
:100C3000B3F5A06F00F062815CE142F221029342C1
:100C400000F0868107D8B3F5086F00F0AB80B3F5EC
:100C5000106F11D04EE142F22122934200F0418107
:100C600042F22132934200F0498143E1604B5D68DA
:100C7000002D40F0188130E1594B9A78544B1A708E
:100C8000564D05F180062B6A13F0800F03D0686A79
:100C9000083800F035FB0835B542F4D1DFF88C8117
:100CA00000263746534AB05828B1456800F028FB63
:100CB0000DB12846F9E700234E4973504E4AB35010
:100CC0004E4BF05828B1456800F01AFB0DB128468C
:100CD000F9E7002349497350494AB35028F8023FC5
:100CE000484BFB5C023B032B0AD8DFE803F002060B
:100CF00002060022434BDA5502E00122414BDA554D
:100D000001370436102ECDD100223F4B1A70012539
:100D10003E4EDFF81C81314F05EB080313F8013C10
:100D200006F8043B13F0080F2DD000F0C9FA48B1C3
:100D3000A90007EB451200F108035360344A47F855
:100D4000312007E0AB00002247F833202E4B1A7801
:100D500001321A7000F0B4FA58B1AB0043F001034D
:100D600007EBC30100F108024A601E4A47F833202E
:100D700009E0AB0043F00103002247F83320224B87
:100D80001A7801321A70AA0042F00201002347F8D3
:100D9000313042F0030247F8323001351D4B9E429C
:100DA000BAD11EE20A4B1B781B4D2B700127AAE01B
:100DB000194D00232B706B700227A4E0084B9B8811
:100DC000042B37D90F22154B1A70C1E08020074041
:100DD0004C8DFF1FD58CFF1F4E8DFF1F0080FF1F06
:100DE000388DFF1FC80040006C8CFF1F4D8DFF1F0A
:100DF000C8540000C48CFF1F708CFF1F188DFF1F8C
:100E0000288DFF1F808CFF1F428DFF1FC4200740CD
:100E100088004000D4200740448DFF1FC0200740B9
:100E20009020074094200740982007402E8FFF1FF6
:100E3000C4540000A04A0021117051709F4A12F85A
:100E4000233013F0020F5CD09B4D01232B7002273F
:100E500059E09B4B9B8803F07F03042B02DC984AEC
:100E600052881AB10F22954B1A7071E0934A12F80A
:100E7000231021F0020102F82310B2E1904B9B886D
:100E800003F07F03042B02DC8D4A52881AB10F2233
:100E90008A4B1A705CE0894A12F8231041F0020173
:100EA00002F823109DE1864B5E889F88854BA3F155
:100EB0000C02114633F80C0CB04209D133F80A0C7D
:100EC000B84205D1360A032E0CBF2F7817891AE0D5
:100ED0000D690C330C32002DEBD10F22774B1A70B9
:100EE00036E0794B1A68794B1A60754B9A78784BD3
:100EF0001A7076E10F22714B1A7029E000273D46E7
:100F000001E002276C4D6E4BDB889F4228BF1F46D5
:100F1000402F34BF3E46402628463146FFF728FD85
:100F20003544BF1B03D13F2E00F2608110E0402FFB
:100F300034BF3E46402628463146FFF719FD35446A
:100F4000BF1B01D13F2E03D9624B1D60624B1F8036
:100F500001238AF8003042E0594B198842F22103FC
:100F6000994212D15D4BD81D12F8011B03F8011FE5
:100F70008342F9D15A4B1B68862B02D10F22594B61
:100F80001A7000200146FFF7F3FC574B45F8363046
:100F900025E0504B1E68BEB14F4FB7F80080B8F146
:100FA000400F34BF4546402530462946FFF7E0FC58
:100FB000C5EB08039BB23B800BB9402D01D13544F2
:100FC00000E00025434B1D603D4B1B88B3F5A06F2F
:100FD00005D13B4B00225A709B788BF800300123DF
:100FE0008AF80030B9E0414E9F0806EBC708D8F8F0
:100FF0000420A2F10800013DEDB213F0080F47D024
:1010000000F07EF93A4B53F825304BB35A68384913
:1010100041F8252003F10802C8F80420354A525D42
:10102000032A12D8DFE802F002060A0E0321314A31
:1010300051550AE002212F4A515506E005212D4A5B
:10104000515502E004212B4A515518F0080F0CBFEE
:101050008822C8221B8842EA034346F837307CE0E6
:10106000244B5B5D032B0BD8DFE803F07777020698
:101070000022204B5A5570E001221E4B5A556CE05D
:1010800018F0080F0CBF022203221A4B5A5564E0D5
:1010900056F837301B0C22F8083C002B55D00023A3
:1010A00022F8063C42F8043C134B53F825302BBB86
:1010B000114B43F8250025E0448DFF1FC020074059
:1010C000388DFF1FD4540000688CFF1F408FFF1F16
:1010D0005C8DFF1F6C8CFF1F408DFF1F378FFF1F24
:1010E000388FFF1FD58CFF1FC80040000080FF1FF6
:1010F000188DFF1F808CFF1FC48CFF1F3F4B53F8C0
:10110000253058603D4B43F825003D4B33F8151012
:1011100032F8082C0A4423F8152000F0D1F860B109
:1011200000F10803C8F8043018F0080F354B364AB0
:1011300008BF134646F837300FE0002346F8373033
:10114000324B1A7801321A7007E018F0080F2D4B55
:101150002D4A08BF134646F8373008232370F4E4BD
:1011600015F0010F22D02A4902230B700022294BCF
:101170001A70294B24481860284C5C6098602848F5
:10118000D8601A619A610D20264B1870FF232648FB
:1011900003700838037018300270244A13709F22BD
:1011A000234B1A7001230B70BDE8F88F15F0800FE8
:1011B00005D00D221B4B1A708022403B1A7015F08F
:1011C000020F06D0184B1A78D2B21A700222083BCE
:1011D0001A7015F0100F0ED01022164B1A70BDE8C1
:1011E000F88F00200146FFF7C3FBB1E62846002137
:1011F000FFF7BEFBACE6BDE8F88F00BF708CFF1FA9
:10120000308FFF1FC800400088004000428DFF1F44
:1012100094200740D48CFF1F0080FF1F848CFF1F89
:10122000D88CFF1FC0200740882007408C20074033
:10123000842007408020074008B501F05FFC0023B0
:101240001B491A465A50C81842600833882BF9D1F6
:10125000184B1A6842F480221A60154BC3F3072119
:10126000154A1170C3F30741143211701B0E04327A
:101270001370FF23343A137008321370783A1370E6
:1012800001238432137000216C3211707C3A137088
:1012900070220A4B1A704FF40072A3F241331A60A5
:1012A000102203F1C04303F5C8231A7008BD00BF24
:1012B0000080FF1F348004409C20074049E400E088
:1012C00072B60D4B1A68B2FA82F30B2B02D962B6D2
:1012D000002070474FF00041D94022EA0102064940
:1012E0000A6062B6054903EBC303DB00C81800229D
:1012F000CA504260704700BF6887FF1F0084FF1F0D
:1013000008B50F4BC31A0F4AA2FB03131B090B2B83
:1013100014D80D4A12783AB10C4A127812F0FF0F25
:1013200002D0FFF77DFB08BD72B6094A4FF00041BD
:1013300021FA03F311681943116062B608BD00BFBA
:101340000084FF1F398EE338428DFF1F4C8DFF1F35
:101350006887FF1F10B5134B1B6853B9124B1B78DE
:1013600013F0FF0F18D00320FFF726FB0D4B18607A
:10137000A8B10C4B186843885A1C03441C7A038894
:101380009A4206D3FFF7BCFF0022064B1A602046A4
:1013900010BD4280204610BD4FF0FF3010BD4FF011
:1013A000FF3010BD588DFF1F4C8DFF1F08B50D4B32
:1013B0001B6883B90C4B1B7813F0FF0F08D0032078
:1013C000FFF7FAFA074B186028B94FF0FF3008BD55
:1013D0004FF0FF3008BD034B1B685A881344187A3E
:1013E00008BD00BF588DFF1F4C8DFF1F044B988810
:1013F000044B1B681BB11A885B88D31A18447047CA
:10140000308FFF1F588DFF1F2DE9F0470446012242
:10141000374B1A700E46002964D0DFF8E080DFF801
:10142000E0909A46334FD8F8003083BB99F80030EB
:1014300013F0FF0F06D100222D4B1A704FF0FF3032
:10144000BDE8F08748F601450420FFF7D3FA0728E6
:101450000AD801238AF80030FFF732FFC8F80000ED
:10146000A8B900238AF80030013D01D03B7833B1A0
:101470000122204B1A704FF0FF30BDE8F08700F0DA
:10148000ABF899F8003013F0FF0FDDD1D3E700235C
:101490003B70D8F800104A88C2F14005AE4238BF10
:1014A000354602F108030B442A444A80761B3DB1BD
:1014B000254414F8012B03F8012BAC42F9D100E0CC
:1014C00025464B883F2B07D940230B800420FFF78C
:1014D000EBFA0023C8F800300522074B1A700EB152
:1014E0002C46A0E70020024B1870BDE8F08700BF33
:1014F0004F8DFF1F548DFF1F4E8DFF1F508DFF1FFF
:101500004C8DFF1F00B583B002AB03F8010D1846E8
:101510000121FFF779FF03B05DF804FB10B5144B10
:101520001B7813F0FF0F21D00122124B1A70124BBF
:10153000196851B10024114B1C704B880B8004209A
:10154000FFF7B2FA0C4B1C600DE0FFF7B9FE014645
:1015500030B10022094B1A700420FFF7A5FA02E00F
:101560000122064B1A700022024B1A7010BD00BFF8
:101570004C8DFF1F4F8DFF1F508DFF1F4E8DFF1F86
:1015800008B50E4B1B7813F0FF0F16D10C4B1968E2
:1015900041B14B880B800420FFF786FA0022084BEC
:1015A0001A6008BDFFF78CFE014618B10420FFF752
:1015B0007BFA08BD0122034B1A7008BD4F8DFF1F37
:1015C000508DFF1F4E8DFF1F08B5FEF74BFFFEF736
:1015D0004FFF00F001F8FAE708B50F4B1B78CBB9C5
:1015E00001220D4B1A70FFF701FF08B101F0CCFC8E
:1015F00000F076FB08B101F057FB00F0EDFE08B1FA
:1016000001F0F4FB01F090F908B101F091FC002227
:10161000014B1A7008BD00BF5D8DFF1F60223A4B61
:101620001A70E12201331A70384B1B78082B10D145
:10163000012203F1804303F56C331A60132334490C
:101640000B6001F5FF2101F2FC710A60314A136061
:101650001FE00A2B0DD119222F4B1A6013232C499E
:101660000B6001F5FF2101F2FC710A60294A136049
:101670000FE00C2B0CBF15223D22274B1A601223C2
:1016800023490B6001F5FF2101F2FC710A60214A38
:101690001360224B1B7833B10123214A136002F5FA
:1016A0000022136005E000231D4A136002F50022AA
:1016B00013601C4B1B78012B06D880231A4A136039
:1016C00002F5002213601AE0042B06D88423164A80
:1016D000136002F50022136011E0082B06D8852361
:1016E000114A136002F50022136008E0102B94BF2A
:1016F000862387230C4A136002F50022136001221F
:101700000A4B1A70704700BF004007406C87FF1FEC
:101710000CB003400CB00B4008B003405F8DFF1FBE
:1017200020B003406D87FF1F24B003405E8DFF1F74
:10173000094B1A6842F480521A60084B1B781BB19F
:101740008022074B1A7002E0C022054B1A7080F30A
:101750000C00044B188070472C8004405F8DFF1FE5
:1017600021C00C4000C00C40024B1A6801321A60C4
:10177000704700BF688CFF1F08B50D4C236813F439
:10178000802F01D0FFF7D8F9236813F4806F01D0C0
:1017900000F030FB236813F4006F01D000F0A6FEC8
:1017A000236813F4805FE9D001F034F9E6E700BF65
:1017B0003480044008B5FFF7DFFF00BF1022014B63
:1017C0001A80704700200540704700BFEFF3138375
:1017D000ABB9EFF31083ABB9EFF3058323B10F2B54
:1017E00005D9094A985C03E04FF4807000E00020BE
:1017F000EFF311833BB1834238BF184670474FF077
:10180000FF30704700207047F0E300E0254B1A6876
:1018100042F480621A600023234A1370234A137033
:10182000234A1370234A1370234A1370234B1B78E7
:1018300013B1152B05D008E040F21332204B1A608B
:1018400003E040F213321F4B1A601F4B1B78012B31
:1018500002D0052B05D008E04FF451721B4B1A60E3
:1018600003E04FF451721A4B1A60C0F34432194B23
:101870001A70C0F347125A7000F01F0098720422C9
:101880009A700221D9745A7588221A743C22DA702F
:101890004022114B1A704FF40052A3F229331A6000
:1018A000704700BF34800440EC8DFF1F658DFF1F23
:1018B000F48DFF1FED8DFF1F648DFF1FA88DFF1F8F
:1018C00040A0044018C004406E87FF1F44A004409D
:1018D0001CC0044000A006402DE400E0164B9B789D
:1018E00003F0EC0300F00302134310F0040F18BFE1
:1018F00043F01003104A937000F00F03042B04D13F
:101900001346927942F040029A710B4B5A7902F0D9
:10191000EF0210F0100F18BF42F01002064B5A7180
:101920009B7903F0EF0310F0200F18BF43F0100372
:10193000014A9371704700BF00A0064010B5144BD8
:101940001B6813F4806F21D0124B1B7813F0FF0F2C
:1019500006D0104CFFF740FE237813F0FF0FF9D1AB
:101960004FF400520C4B1A6000230C4AD37040F223
:1019700003120B490A6004310A600A4A13700A4ACA
:1019800013700A4B1B680BB101221A7010BD00BF07
:1019900034800440648DFF1F84E100E000A0064015
:1019A00040A00440EC8DFF1F658DFF1F608DFF1F61
:1019B00010B50446094A137813F0FF0FFBD12046F7
:1019C0000121FEF7F9FD20460021FEF7D1FD044B71
:1019D00053F83420034B1A6010BD00BF648DFF1F05
:1019E000B4530000F08DFF1F124B1B78984220D09B
:1019F000114A126812F4806F19D0012B02D0052B06
:101A000004D006E000220D4B1A6002E000220C4BCD
:101A10001A60012802D0052805D008E04FF4517261
:101A2000064B1A6003E04FF45172054B1A60014BEC
:101A3000187070476E87FF1F3480044044A0044034
:101A40001CC00440114B1B7898421ED0104A1268EB
:101A500012F4806F17D013B1152B04D006E00022CA
:101A60000C4B1A6002E000220B4B1A6010B11528D3
:101A700005D008E040F21332064B1A6003E040F252
:101A80001332054B1A60014B18707047A88DFF1F69
:101A90003480044040A0044018C0044010B50D4BF1
:101AA0001B6813F4806F12D021280CD80A4C0B4B02
:101AB00053F8303023600121FEF77EFD23680022B9
:101AC0001A70012010BD0020034B186010BD0020CB
:101AD00010BD00BF34800440608DFF1FB453000070
:101AE000114B1B6813F4806F1BD0122804D140F2F5
:101AF00002320E4B1A600DE0142804D140F202327B
:101B00000B4B1A6006E00B4B5A7B02F0FE025A7335
:101B100000207047074B5A7B42F001025A730120A4
:101B200070470020704700BF348004400CA0044080
:101B300014C0044000A006402DE9F04107461F4BA9
:101B40001B6813F4806F37D01D4B1B680BB101224B
:101B50001A701C4B1C780134402C28BF00241A4DED
:101B60001A4EDFF86C8017E0FFF730FE40280FDCDC
:101B7000337913F0800F0FD02B780133402B28BF1F
:101B8000002318F80320D2B2F271DBB22B7003E00D
:101B9000FF2801DDFFF720FD2B78DBB29C42E3D06C
:101BA000FFB20B4B1F5501220A4B1A70E4B2054BD2
:101BB0001C70BC22054BDA70BDE8F0813480044013
:101BC000F08DFF1FF48DFF1FED8DFF1F00A006405D
:101BD000688DFF1F648DFF1F2DE9F84F0746284BC6
:101BE0001B6813F4806F49D0264B1B680BB1012290
:101BF0001A7007EB010B5F453DD2DFF89890224E3B
:101C0000DFF88C80DFF890A099F800400134402C78
:101C100028BF00243578EDB2A54220D1BC2388F836
:101C20000330FFF7D3FD402811DC98F8043013F09F
:101C3000800F10D033780133402B28BF00231AF8CF
:101C40000320D2B288F80720DBB2337003E0FF280C
:101C500001DDFFF7C1FC3378DBB29D42E1D017F81C
:101C6000013B0AF804300122084B1A70E4B289F8EB
:101C700000405F45C8D1BC22054BDA70BDE8F88F43
:101C800034800440F08DFF1FED8DFF1F648DFF1F1A
:101C900000A00640F48DFF1F688DFF1F10B5064B96
:101CA0001B7813F0FF0F06D0034CFFF795FC237849
:101CB00013F0FF0FF9D110BD648DFF1F064B1B7889
:101CC000DBB2064A1278D2B293422CBF3F3202F105
:101CD000FF32D01A704700BFF48DFF1FED8DFF1F3C
:101CE000054B1878C0B2054B1B78DBB2984238BF61
:101CF0004030C01A704700BFEC8DFF1F658DFF1F7D
:101D000010B4184B1A78D2B2174B1B78DBB29A4238
:101D100018D001333F2B18D81449C85CC0B2DCB2CC
:101D200011490C7012490968C9B19A4203D300E005
:101D30000023D31A01E04032D31A1A2B0FDC002300
:101D40000B700CE04FF0FF3009E0084B1878C0B280
:101D50000021054B1970064B19680029E8D15DF880
:101D6000044B7047EC8DFF1F658DFF1FAC8DFF1F6F
:101D7000608DFF1F094B1A78D2B2094B1B78DBB27A
:101D80009A4207D00133402B28BF0023054AD05C7C
:101D9000C0B270474FF0FF30704700BFEC8DFF1F9F
:101DA000658DFF1FAC8DFF1F0D4B1B6813F4806FFB
:101DB00014D00C4BDA7802F0CB02DA7040225A745D
:101DC000DA7842F03402DA70074B1A78D2B2074B55
:101DD0001A70074B1B680BB100221A70704700BFC6
:101DE0003480044000A00640658DFF1FEC8DFF1F6E
:101DF000608DFF1F70B43D4B1B7913F0300F33D053
:101E000072B63A4B9B7D03F0FF022BB9374BDA7960
:101E100040225A7462B627E062B6354B1978C9B2CF
:101E2000344B1C78E4B2314D334EEB79D8B24B1CB5
:101E3000402B28BF0023A3421CBFF0541946531E59
:101E400013F0FF02F1D1CAB2294B1A702B4B1B6859
:101E500053B1A1422EBFC4EB0101C4F140040919E2
:101E60002729C4BF01221A70204BDA78D2B212F0AF
:101E7000800F27D01B7913F0800F23D0204B1C78C4
:101E8000E4B2204B1B78DBB29C4210D017491E4DA8
:101E900001E0A3420BD00133402B28BF0023087977
:101EA000E85CC0B2C871087DC0B20728F1D9DBB2C6
:101EB00014490B700D4B1B7913F0800F02D07C215D
:101EC0000A4BD97012F0400F0ED0084B1B7913F05B
:101ED000400F09D000220D4B1A700D4B1B6803B147
:101EE0001A703C22014BDA7070BC704700A00640AB
:101EF000EC8DFF1F658DFF1FAC8DFF1F608DFF1FD9
:101F0000F48DFF1FED8DFF1F688DFF1F648DFF1F78
:101F1000F08DFF1F254B1A6842F400621A600023FF
:101F2000234A1370234A1370234A1370234A1370F1
:101F3000234A1370234B1B78092B02D01A2B05D090
:101F400008E040F21332204B1A6003E040F21332F3
:101F50001E4B1A601E4B1B780A2B02D01F2B05D07C
:101F600008E04FF451721B4B1A6003E04FF45172BA
:101F7000194B1A60C0F34432184B1A70C0F3471261
:101F80005A7000F01F00987204229A700221D974CE
:101F90005A7588221A743C22DA704022104B1A704B
:101FA0004FF40042A3F22B331A6070473480044090
:101FB000688EFF1FFD8DFF1F708EFF1F698EFF1F34
:101FC000FC8DFF1F6F87FF1F0CB0044004D004403E
:101FD0007087FF1F10B0044000D0044000B00640DE
:101FE0002FE400E0164B9B7803F0EC0300F00302B3
:101FF000134310F0040F18BF43F01003104A9370FE
:1020000000F00F03042B04D11346927942F04002F2
:102010009A710B4B5A7902F0EF0210F0100F18BFB3
:1020200042F01002064B5A719B7903F0EF0310F057
:10203000200F18BF43F01003014A9371704700BF8F
:1020400000B0064010B5144B1B6813F4006F21D08C
:10205000124B1B7813F0FF0F06D0104CFFF7BCFAA1
:10206000237813F0FF0FF9D14FF400420C4B1A60A4
:1020700000230C4AD37040F203120B490A6004316A
:102080000A600A4A13700A4A13700A4B1B680BB1A4
:1020900001221A7010BD00BF34800440FC8DFF1F68
:1020A00084E100E000B006400CB00440688EFF1FE1
:1020B000FD8DFF1FF88DFF1F10B50446094A1378E8
:1020C00013F0FF0FFBD120460121FEF775FA2046E1
:1020D0000021FEF74DFA044B53F83420034B1A60ED
:1020E00010BD00BFFC8DFF1FB45300006C8EFF1F9E
:1020F000124B1B78984220D0114A126812F4805F6C
:1021000019D00A2B02D01F2B04D006E000220D4B61
:102110001A6002E000220C4B1A600A2802D01F2825
:1021200005D008E04FF45172064B1A6003E04FF4FB
:102130005172054B1A60014B187070477087FF1F72
:102140003480044010B0044000D00440124B1B788F
:10215000984220D0114A126812F4805F19D0092BDE
:1021600002D01A2B04D006E000220D4B1A6002E0C8
:1021700000220C4B1A60092802D01A2805D008E06A
:1021800040F21332064B1A6003E040F21332054B63
:102190001A60014B187070476F87FF1F348004402E
:1021A0000CB0044004D0044010B50D4B1B6813F470
:1021B000006F12D021280CD80A4C0B4B53F830304A
:1021C00023600121FEF7F8F9236800221A7001202C
:1021D00010BD0020034B186010BD002010BD00BFD3
:1021E00034800440F88DFF1FB45300000D4B1B6872
:1021F00013F4006F13D017280AD140F202320A4BB1
:102200001A600A4B5A7B42F001025A730120704750
:10221000064B5A7B02F0FE025A73002070470020E2
:10222000704700BF3480044008B0044000B006404E
:102230002DE9F04107461F4B1B6813F4006F37D0A0
:102240001D4B1B680BB101221A701C4B1C7801340A
:10225000282C28BF00241A4D1A4EDFF86C8017E096
:10226000FFF7B4FA40280FDC337913F0800F0FD05A
:102270002B780133282B28BF002318F80320D2B273
:10228000F271DBB22B7003E0FF2801DDFFF7A4F948
:102290002B78DBB29C42E3D0FFB20B4B1F550122DF
:1022A0000A4B1A70E4B2054B1C70BC22054BDA7065
:1022B000BDE8F081348004406C8EFF1F708EFF1FDC
:1022C000698EFF1F00B00640008EFF1FFC8DFF1FB0
:1022D0002DE9F84F0746284B1B6813F4006F49D0CF
:1022E000264B1B680BB101221A7007EB010B5F45EF
:1022F0003DD2DFF89890224EDFF88C80DFF890A076
:1023000099F800400134282C28BF00243578EDB21C
:10231000A54220D1BC2388F80330FFF757FA4028A4
:1023200011DC98F8043013F0800F10D033780133AB
:10233000282B28BF00231AF80320D2B288F80720E0
:10234000DBB2337003E0FF2801DDFFF745F9337896
:10235000DBB29D42E1D017F8013B0AF804300122BC
:10236000084B1A70E4B289F800405F45C8D1BC221E
:10237000054BDA70BDE8F88F348004406C8EFF1F87
:10238000698EFF1FFC8DFF1F00B00640708EFF1F7F
:10239000008EFF1F10B5064B1B7813F0FF0F06D001
:1023A000034CFFF719F9237813F0FF0FF9D110BD93
:1023B000FC8DFF1F064B1B78DBB2064A1278D2B2A7
:1023C00093422CBF273202F1FF32D01A704700BF70
:1023D000708EFF1F698EFF1F054B1878C0B2054B2A
:1023E0001B78DBB2984238BF4030C01A704700BF3C
:1023F000688EFF1FFD8DFF1F10B4184B1A78D2B2E4
:10240000174B1B78DBB29A4218D001333F2B18D8F8
:102410001449C85CC0B2DCB211490C701249096899
:10242000C9B19A4203D300E00023D31A01E040323D
:10243000D31A1A2B0FDC00230B700CE04FF0FF3087
:1024400009E0084B1878C0B20021054B1970064B03
:1024500019680029E8D15DF8044B7047688EFF1FAA
:10246000FD8DFF1F288EFF1FF88DFF1F094B1A7867
:10247000D2B2094B1B78DBB29A4207D00133402B12
:1024800028BF0023054AD05CC0B270474FF0FF3030
:10249000704700BF688EFF1FFD8DFF1F288EFF1F36
:1024A0000D4B1B6813F4006F14D00C4BDA7802F05C
:1024B000CB02DA7040225A74DA7842F03402DA70D1
:1024C000074B1A78D2B2074B1A70074B1B680BB137
:1024D00000221A70704700BF3480044000B00640EC
:1024E000FD8DFF1F688EFF1FF88DFF1F70B43D4BE1
:1024F0001B7913F0300F33D072B63A4B9B7D03F04B
:10250000FF022BB9374BDA7940225A7462B627E0C2
:1025100062B6354B1978C9B2344B1C78E4B2314DF0
:10252000334EEB79D8B24B1C402B28BF0023A3427B
:102530001CBFF0541946531E13F0FF02F1D1CAB26A
:10254000294B1A702B4B1B6853B1A1422EBFC4EB11
:102550000101C4F1400409192729C4BF01221A70DE
:10256000204BDA78D2B212F0800F27D01B7913F00B
:10257000800F23D0204B1C78E4B2204B1B78DBB2B9
:102580009C4210D017491E4D01E0A3420BD00133ED
:10259000282B28BF00230879E85CC0B2C871087DE9
:1025A000C0B20728F1D9DBB214490B700D4B1B796F
:1025B00013F0800F02D07C210A4BD97012F0400F2B
:1025C0000ED0084B1B7913F0400F09D000220D4BA1
:1025D0001A700D4B1B6803B11A703C22014BDA7064
:1025E00070BC704700B00640688EFF1FFD8DFF1F56
:1025F000288EFF1FF88DFF1F708EFF1F698EFF1F33
:10260000008EFF1FFC8DFF1F6C8EFF1F174B1A687B
:1026100042F480521A600023154A1370154A137051
:10262000154A1370154A1370154A137040F213318E
:10263000144A11604FF4517104321160C0F34431F7
:10264000114A1170C0F34711517000F01F009072D1
:10265000937013742C23D37040220C4B1A704FF4D8
:102660000032A3F22D331A60704700BF348004405B
:10267000E48EFF1F798EFF1FEC8EFF1FE58EFF1F7C
:10268000788EFF1F08C0044000C0064031E400E01F
:10269000164B9B7803F0EC0300F00302134310F099
:1026A000040F18BF43F01003104A937000F00F039B
:1026B000042B04D11346927942F040029A710B4BDD
:1026C0005A7902F0EF0210F0100F18BF42F010021A
:1026D000064B5A719B7903F0EF0310F0200F18BFDF
:1026E00043F01003014A9371704700BF00C00640D9
:1026F00010B5144B1B6813F4805F21D0124B1B786C
:1027000013F0FF0F06D0104CFEF766FF237813F08E
:10271000FF0FF9D14FF400320C4B1A6000230C4A22
:10272000D37040F203120B490A6004310A600A4A6E
:1027300013700A4A13700A4B1B680BB101221A70FE
:1027400010BD00BF34800440788EFF1F84E100E09C
:1027500000C0064008C00440E48EFF1F798EFF1FB2
:10276000748EFF1F10B50446094A137813F0FF0F4B
:10277000FBD120460121FDF71FFF20460021FDF778
:10278000F7FE044B53F83420034B1A6010BD00BF12
:10279000788EFF1FB4530000E88EFF1F704700BF04
:1027A000704700BF10B50D4B1B6813F4805F12D04B
:1027B00021280CD80A4C0B4B53F8303023600121F0
:1027C000FDF7FAFE236800221A70012010BD0020D8
:1027D000034B186010BD002010BD00BF34800440C2
:1027E000748EFF1FB45300000D4B1B6813F4805F01
:1027F00013D00E280AD140F202320A4B1A600A4B5B
:102800005A7B42F001025A7301207047064B5A7BF3
:1028100002F0FE025A73002070470020704700BF8C
:102820003480044004C0044000C006402DE9F0415B
:1028300007461F4B1B6813F4805F37D01D4B1B6886
:102840000BB101221A701C4B1C780134282C28BFB4
:1028500000241A4D1A4EDFF86C8017E0FEF7B6FF21
:1028600040280FDC337913F0800F0FD02B78013321
:10287000282B28BF002318F80320D2B2F271DBB254
:102880002B7003E0FF2801DDFEF7A6FE2B78DBB2FC
:102890009C42E3D0FFB20B4B1F5501220A4B1A702A
:1028A000E4B2054B1C70AC22054BDA70BDE8F08138
:1028B00034800440E88EFF1FEC8EFF1FE58EFF1F63
:1028C00000C006407C8EFF1F788EFF1F38B505467E
:1028D0000C4629B115F8010BFFF7A8FF013CF9D10F
:1028E00038BD00BF10B5064B1B7813F0FF0F06D0A4
:1028F000034CFEF771FE237813F0FF0FF9D110BDE2
:10290000788EFF1F064B1B78DBB2064A1278D2B2D4
:1029100093422CBF273202F1FF32D01A704700BF1A
:10292000EC8EFF1FE58EFF1F054B1878C0B2054BDC
:102930001B78DBB2984238BF4030C01A704700BFE6
:10294000E48EFF1F798EFF1F10B4184B1A78D2B295
:10295000174B1B78DBB29A4218D001333F2B18D8A3
:102960001449C85CC0B2DCB211490C701249096844
:10297000C9B19A4203D300E00023D31A01E04032E8
:10298000D31A1A2B0FDC00230B700CE04FF0FF3032
:1029900009E0084B1878C0B20021054B1970064BAE
:1029A00019680029E8D15DF8044B7047E48EFF1FD9
:1029B000798EFF1FA48EFF1F748EFF1F094B1A789C
:1029C000D2B2094B1B78DBB29A4207D00133402BBD
:1029D00028BF0023054AD05CC0B270474FF0FF30DB
:1029E000704700BFE48EFF1F798EFF1FA48EFF1F6C
:1029F000054B1A78D2B2054B1A70054B1B680BB108
:102A000000221A70704700BF798EFF1FE48EFF1FEF
:102A1000748EFF1F2F4B1B7913F0200F23D02D4BEB
:102A2000DB79D9B22C4B1B780133402B28BF002314
:102A30002A4A1278D2B29A4204D0294AD154D9B241
:102A4000254A1170274A116869B1274A1278D2B213
:102A500093422EBFC2EB0303C2F140029B18272B07
:102A6000C4BF01230B701B4BDB78DBB213F0800F6C
:102A70001CD0184A127912F0800F17D01B4A117817
:102A8000C9B2194A1278D2B2914203D16C21114ACB
:102A9000D1700BE00132282A28BF00221449885C3B
:102AA000C0B20C49C871D2B20F490A7013F0400F7E
:102AB0000ED0084B1B7913F0400F09D000220D4BAC
:102AC0001A700D4B1B6803B11A702C22014BDA707F
:102AD000704700BF00C00640E48EFF1F798EFF1FC5
:102AE000A48EFF1F748EFF1FE58EFF1FEC8EFF1F4D
:102AF0007C8EFF1F788EFF1FE88EFF1F00B585B00C
:102B000072B61B4B70221A7041211A4A11700F21A4
:102B1000013A117080221A701A46137813F0800F50
:102B2000FBD0154B186862B6144B98429CBF00EB63
:102B30008000400001A90A2200F036FA9DF8043016
:102B40007BB908E001A9595C31B1918002320133AF
:102B50000A2BF7D100E0002301335B00084A137011
:102B600003E0074A53800123ECE705B05DF804FB5E
:102B70000000024007000240080002407F969800D3
:102B80000088FF1F08B503681B68C9B2984708BDD5
:102B900008B503681B68C9B2984708BD08B5036843
:102BA0001B68C9B2984708BD08B503681B68C9B25D
:102BB000984708BD08B5044800EB5100B0FBF1F0A0
:102BC000FEF724FE08BD00BF0044950810B514466A
:102BD000054800EB5100B0FBF1F0FEF717FE204670
:102BE000FEF77CFE10BD00BF0044950808B5FEF757
:102BF000A5FE08BD08B50846FEF7DAFE08BD00BF11
:102C000008B50846FEF71EFF08BD00BF08B5084618
:102C1000FEF7EAFE08BD00BF08B50846FEF73EFF16
:102C2000003018BF012008BD08B50846FEF758FF60
:102C3000003018BF012008BD08B5FFF751F808BDE6
:102C400008B5FFF797F808BD08B5FFF759F808BDB4
:102C500008B5FFF723F808BD08B5FFF7A5F808BDCC
:102C600008B5FFF72BF808BD08B50846FEF764FF66
:102C7000012008BD08B50846FEF75EFF012008BD2B
:102C800010B5144608461146FEF7A6FF204610BDB3
:102C900038B50D46084602F0E1FA044628462146BA
:102CA000FEF79AFF204638BD704700BF044B002254
:102CB0001A714FF47A7199601A73024A1A60704758
:102CC000F08EFF1F2855000008B503681B68C9B2C5
:102CD000984708BD08B503681B68C9B2984708BD86
:102CE00008B503681B68C9B2984708BD08B50368F2
:102CF0001B68C9B2984708BD08B5044800EB5100ED
:102D0000B0FBF1F0FFF706F908BD00BF00449508DD
:102D100010B51446054800EB5100B0FBF1F0FFF789
:102D2000F9F82046FFF75EF910BD00BF0044950892
:102D300008B5FFF787F908BD08B50846FFF7BCF9E5
:102D400008BD00BF08B50846FFF700FA08BD00BF80
:102D500008B50846FFF7CCF908BD00BF08B508461E
:102D6000FFF722FA003018BF012008BD08B5084659
:102D7000FFF73CFA003018BF012008BD08B5FFF787
:102D80002BFB08BD08B5FFF771FB08BD08B5FFF7C1
:102D900033FB08BD08B5FFF7FDFA08BD08B5FFF71E
:102DA0007FFB08BD08B5FFF705FB08BD08B5084661
:102DB000FFF73EFA012008BD08B50846FFF738FACC
:102DC000012008BD10B5144608461146FFF780FAE9
:102DD000204610BD38B50D46084602F03FFA0446BD
:102DE00028462146FFF774FA204638BD704700BFD9
:102DF000044B00221A714FF47A7199601A73024AD7
:102E00001A607047008FFF1F8855000008B50368DF
:102E10001B68C9B2984708BD08B503681B68C9B2EA
:102E2000984708BD08B503681B68C9B2984708BD34
:102E300008B503681B68C9B2984708BD08B50448BF
:102E400000EB5100B0FBF1F0FFF7E0FB08BD00BF65
:102E500000A24A0410B51446054800EB5100B0FB2F
:102E6000F1F0FFF7D3FB2046FFF712FC10BD00BFC7
:102E700000A24A0408B5FFF73BFC08BD08B50846A8
:102E8000FFF770FC08BD00BF08B50846FFF788FCD7
:102E900008BD00BF08B50846FFF780FC08BD00BFAD
:102EA00008B50846FFF77EFC003018BF012008BDBA
:102EB00008B50846FFF798FC003018BF012008BD90
:102EC00008B5FFF731FD08BD08B5FFF777FD08BD70
:102ED00008B5FFF739FD08BD08B5FFF703FD08BDCC
:102EE00008B5FFF785FD08BD08B5FFF70BFD08BD68
:102EF00008B50846FFF79AFC012008BD08B508464A
:102F0000FFF794FC012008BD10B514460846114691
:102F1000FFF7DCFC204610BD38B50D46084602F030
:102F20009DF9044628462146FFF7D0FC204638BDCF
:102F3000704700BF044B00221A714FF47A719960F8
:102F40001A73024A1A607047108FFF1FE85500007D
:102F500008B5FEF74BFA08BD08B5FEF7FBF908BD4A
:102F600008B5FEF723FA08BD08B5FEF7D7FA08BD85
:102F700008B50846FEF7C6FA08BD00BF08B5084602
:102F80001146FEF741FA08BD704700BF044B00220E
:102F90001A714FF47A7199601A73024A1A60704775
:102FA000208FFF1F4856000030B40023B0FBF2F41E
:102FB00002FB14041D46092C94BF30343734E4B2AC
:102FC000CC54B0FBF2F008B10133EFE70D4400221E
:102FD0006A70934207DD885CCC5C8C54C854013223
:102FE000013B9A42F7DB084630BC704770B5224E71
:102FF00021F00044B44286B002460B461ADD1F4D54
:10300000AC4203DD01F042F906B070BD02AA00F047
:1030100037F800F0030001281DD0022812D008B3B1
:10302000DDE90201DDE9042300F04AFA01F1004183
:1030300006B070BD002300930022002300F040FF83
:1030400006B070BD0124DDE90201DDE9042300942E
:1030500000F036FFEAE7DDE90201DDE9042300F0D4
:103060002FFAD1E70124DDE90201DDE90423009410
:1030700000F026FFC8E700BFFB21E93FFFFFEF7F1D
:103080002DE9F04F964B21F000469E4291B0044648
:103090000D468B46904640F38180924B9E4226DC43
:1030A000002985A3D3E9002340F3A08101F0EEF8C5
:1030B0008D4B9E4204460D4600F0858080A3D3E9E7
:1030C000002301F0E3F802460B46C8E9002320463E
:1030D000294601F0DBF87AA3D3E9002301F0D6F802
:1030E0000127C8E90201384611B0BDE8F08F7F4BD7
:1030F0009E4240F385807E4B9E425ADC4FEA265921
:10310000A9F21649A6EB09552946044601F00CFD23
:1031100001F00AFA06460F4602460B4620462946AB
:10312000CDE90A6701F0B2F80022724B01F062FAB1
:103130000F46064601F0F8FC01F0F6F902460B4690
:1031400004460D4630463946CDE90C4501F09EF85F
:103150000022684B01F04EFA00220023CDE90E0157
:1031600001F0B0FC002800F06D81002320462946C4
:10317000002201F0A7FC002814BF01230223022231
:103180005D49009201914A460AA8414600F0C0FA02
:10319000BBF1000FC0F24881074606E00022002381
:1031A000C8E90045C8E902230027384611B0BDE848
:1031B000F08F02460B4601F069F80027C8E90201CA
:1031C000C8E90001F1E740A3D3E9002301F05EF86C
:1031D0003FA3D3E9002304460D4601F057F8024609
:1031E0000B46C8E900232046294601F04FF838A3D2
:1031F000D3E9002301F04AF80127C8E90201D4E726
:1032000000F016FF34A3D3E9002304460D4601F075
:10321000F1F90022394B01F03BF801F085FC07463B
:1032200001F082F924A3D3E90023CDE9060101F0DE
:10323000E1F902460B462046294601F027F820A373
:10324000D3E90023CDE90201DDE9060101F0D2F95D
:103250001F2FCDE90401DDE9020153DC284B7A1E62
:1032600053F82230B3424DD0DDE9042301F00EF8CB
:1032700004460D46C8E9004522462B46DDE9020119
:1032800001F004F8DDE9042301F000F8BBF1000FC0
:10329000C8E9020189DA264601F1004305F100443C
:1032A0007F42C8F80060C8F80440C8F80800C8F8B1
:1032B0000C307AE7AFF3008000004054FB21F93F67
:1032C0003163621A61B4D03D0000601A61B4D03D30
:1032D0007370032E8A19A33B83C8C96D305FE43F26
:1032E000FB21E93F7BD90240FB21F93FFB2139411A
:1032F000FFFFEF7F00007041E05600000000E03F5C
:1033000060560000DDE9042300F0C0FF3615C1F36C
:103310000A53F31A04460D46102BC8E90045ABDDED
:103320005BA3D3E90023DDE9060101F063F904465C
:103330000D4622462B46DDE9020100F0A7FFCDE94C
:103340000801DDE90823DDE9020100F09FFF2246C4
:103350002B4600F09BFF50A3D3E9002304460D4603
:10336000DDE9060101F046F922462B4600F08EFF0A
:10337000CDE90401DDE90423DDE9080100F086FF61
:10338000C1F30A53F61A04460D46312EC8E900452A
:1033900078DD43A3D3E90023DDE9060101F02AF932
:1033A00004460D4622462B46DDE9080100F06EFF7B
:1033B000CDE90201DDE90223DDE9080100F066FF45
:1033C00022462B4600F062FF37A3D3E900230446D0
:1033D0000D46DDE9060101F00DF922462B4600F00D
:1033E00055FFCDE90401DDE902013DE700F050FFA2
:1033F000314B9E4204460D4626D02DA3D3E900232F
:1034000000F046FF02460B46C8E900232046294645
:1034100000F03CFF26A3D3E9002300F039FF4FF072
:10342000FF37C8E90201C0E6D8F80420D8F80C300C
:1034300002F1004203F100434742C8F80420C8F8F3
:103440000C30B2E603239AE611A3D3E9002300F07F
:103450001FFF11A3D3E9002304460D4600F018FF17
:1034600002460B46C8E900232046294600F00EFF1D
:1034700009A3D3E9002300F00BFF4FF0FF37C8E9A1
:10348000020192E6DDE90823CDE90223F4E600BF5C
:103490000000601A61B4D03D7370032E8A19A33BFB
:1034A0000000002E8A19A33BC14920259A837B394D
:1034B0003163621A61B4D03DFB21F93FAFF3008064
:1034C0002DE9F04F21F00049B9F1795F85B006464A
:1034D0000F4692469B466BDA01F026FB002800F06F
:1034E000EB8032463B463046394601F083F876A3FE
:1034F000D3E9002304460D4601F07CF874A3D3E918
:10350000002300F0C5FE22462B4601F073F872A39B
:10351000D3E9002300F0BAFE22462B4601F06AF8F8
:103520006FA3D3E9002300F0B3FE22462B4601F03F
:1035300061F86DA3D3E9002300F0A8FE22462B46D4
:1035400001F058F86AA3D3E9002300F0A1FE224657
:103550002B4601F04FF8CDE9000120462946002214
:10356000654B01F047F8DDE9002380468946204697
:10357000294601F03FF8524604460D465B46304668
:10358000394601F037F802460B462046294600F03E
:103590007DFE02460B464046494600F077FE024655
:1035A0000B460020554900F071FE05B0BDE8F08FD4
:1035B00002460B4601F01EF843A3D3E9002304465C
:1035C0000D4601F017F842A3D3E9002300F060FE96
:1035D00022462B4601F00EF83FA3D3E9002300F06A
:1035E00055FE22462B4601F005F83DA3D3E9002302
:1035F00000F04EFE22462B4600F0FCFF3AA3D3E932
:10360000002300F043FE22462B4600F0F3FF38A3D0
:10361000D3E9002300F03CFE2B46224600F0EAFFEF
:10362000374B9945CDE9000197DD364B99454FF071
:10363000000239DCA9F50013002200202F49904632
:10364000994600F023FECDE90201204629460022DA
:10365000294B00F0CFFF42464B4600F017FEDDE954
:103660000023804689462046294600F0C3FF524683
:1036700004460D465B463046394600F0BBFF024625
:103680000B462046294600F001FE02460B46404606
:10369000494600F0FBFD02460B46DDE9020100F061
:1036A000F5FD05B0BDE8F08F174BDFF86090CDE970
:1036B00002234FF00008C8E71049002005B0BDE81C
:1036C000F08F00BFAFF30080D43888BEE9FAA8BD00
:1036D000C4B1B4BD9EEE213EAD529C804F7E923E61
:1036E0009015CB19A001FA3E7751C1166CC1563F17
:1036F0004C5555555555A53F0000E03F0000F03FA3
:103700003233D33F0000E93F0000E73F0000D23FE3
:103710002DE9F04FADF51D7D1B4CA69E1B4D54F8B9
:1037200026400C94D41E85FB0465E417C4EBA50465
:1037300024EAE4740E9499460790E3430B910E98A3
:103740000C9909F1FF3403EB4303049402EBC30328
:10375000061B64180A931BD4A798344401340DF156
:10376000880800EB8605002709E0E85900F0DCFE38
:103770000136A642E8E9020107F1040708D0002E4D
:10378000F3DA00200021F3E7E8570000ABAAAA2AE9
:103790000C9C002C2DDB0C9C74AE06EBC40B24A8F7
:1037A00000EBC90A0DF5E478CDF80CB0049C002CB0
:1037B000C0F28581079E5746A6F1080B002400251C
:1037C000002677E90223FBE9020100F013FF02461D
:1037D0000B462046294600F05BFD01364E45044667
:1037E0000D46EED1E8E90245039EB0450AF1080A0C
:1037F000DCD10C9E039610AC029404EB86040F946B
:10380000039C039EE4009CAB2344002E069453E9E2
:1038100028452EDD069E0DF5E87AB244039E0DF193
:103820003C0B0BEB860B0DF13C080022AA4B20460B
:10383000294600F0DFFE01F077F900F075FE002266
:10384000A64B06460F4600F0D5FE02460B46204624
:10385000294600F01BFD01F067F9324648F8040FD5
:103860003B467AE9020100F013FDD84504460D46B7
:10387000DBD1204629460A9A00F06EFC00224FF068
:103880007F5304460D4600F0B5FE00F0D5FB002244
:10389000934B00F0AFFE02460B462046294600F04F
:1038A000F5FC04460D4601F03FF9824600F03CFE6F
:1038B00002460B462046294600F0E8FC0A9C002CF4
:1038C00006460F4640F3C980039C10AA611E0A9C5D
:1038D00052F82130C4F1180043FA00F2C4F1170580
:1038E00002FA00F010AC1B1A44F82130924443FA5B
:1038F00005F5002D2CDD039C002C0AF1010A40F394
:10390000E98010AB03EB8400002453F8041BC1F1E1
:10391000FF1202F57F4214B9C1F1807211B143F870
:10392000042C01248342F0D10A9800280DDD0128DF
:1039300000F0B480022808D1039910A84B1E50F85B
:103940002320C2F3150240F82320022D00F08D80C1
:10395000304639460022002301F0B4F8002800F078
:10396000C580039C0C9E04F1FF3846450DDC10A871
:1039700000EB84030F98002253F8041D834242EAAF
:103980000102F9D1002A40F04D820C9C10AE621E5B
:1039900056F82230002B40F0438206EB82020123CE
:1039A00052F8041D01330029FAD0039C039E1C44E5
:1039B000731CA3420D944ADC049C314632460E9E91
:1039C000234432440D9C039E03F1FF3BA31BA79E9F
:1039D00024A8494400EBC10406EB8202069E099428
:1039E00074ACDB00344400EBCB0B039208930694D9
:1039F0004FF00008039C54F8040F039400F094FD6A
:103A0000049E002E08F10808EBE9020122DB079C66
:103A1000099FA4F1080A474400240025002677E9FD
:103A20000223FAE9020100F0E5FD02460B462046BA
:103A3000294600F02DFC01364E4504460D46EED1D8
:103A4000069EE6E90245089C0696A045D2D10D9E49
:103A50000396D5E600240025F2E729D1039C10A89F
:103A6000631E50F82350ED1543E732463B460020D5
:103A70001C4900F00BFC06460F46002C3FF468AFD3
:103A80000A9A1849002000F067FB02460B463046B0
:103A9000394600F0FBFB06460F4659E7039910A88C
:103AA0004B1E50F82320C2F3160240F823204CE7A7
:103AB00000220D4B01F024F820B9054648E7002408
:103AC00000258FE6039C002C4FF002050AF1010A45
:103AD0003FF717AF002427E70000703E0000704159
:103AE000000020400000F03F0000E03F30460A9E0A
:103AF000069572423946CDF81CA000F02DFB00223D
:103B0000924B04460D4600F0FBFF002800F0B68102
:103B100000228F4B2046294600F06CFD01F004F88E
:103B2000064600F001FD0022884B00F063FD0246CE
:103B30000B462046294600F0A9FB00F0F5FF039C48
:103B400004F101080A9C183410A90A94039C41F856
:103B5000240041F828600A9A7E49002000F0FCFA0F
:103B6000B8F1000F04460D465ADB08F1010610A813
:103B700074A9039600EB860701EBC60657F8040DFF
:103B800000F0D2FC22462B4600F034FD002266E90C
:103B900002016F4B2046294600F02CFD029A974205
:103BA00004460D46EAD108F1005B0BF1FF3B74AB14
:103BB0000DF5987ACDF82080DDF83080CDF810A092
:103BC00003EBCB0B4FF00009B8F1000FC0F22281DC
:103BD000DFF884A15F4600240025002601E04E4561
:103BE00010DCF7E90223FAE9020100F003FD0246C6
:103BF0000B462046294600F04BFB0136B0450446F3
:103C00000D46ECDA049E06EBC903C3E90045039CAC
:103C100009F10109A145ABF1080BD5D1DDF82080F0
:103C2000A69E032E00F28A80DFE816F0D4009800EA
:103C300098000400B8F1000F40F30C810DF5987A5C
:103C40004FEAC80B0AEB0B03D3E9006708F1010345
:103C50000AEBC303039399460DF59C7C01E02646CD
:103C60002F4659E9040132463B46CDF804C0CDE960
:103C7000040100F00DFB04460D4622462B46DDE90B
:103C8000040100F003FB32463B4600F001FB69E90A
:103C90000201DDF804C0E14549E90245DFD1B8F190
:103CA000010F40F30981DDF80CC0CDF810A0D3441A
:103CB000DBE900450AF1100BE24601E034463D46DF
:103CC0005AE9048922462B464046494600F0E0FA6C
:103CD00006460F4632463B464046494600F0D6FA75
:103CE00022462B4600F0D4FA6AE90201DA454AE995
:103CF0000267E3D1DDF810A0039C0020002174E9E5
:103D0000022300F0C5FAA345F9D1069C002C00F06F
:103D1000A9800B9EDAF80450DAF80C40DAF800209B
:103D2000DAF80830326005F1004504F1004401F191
:103D300000427560F460B36030617261079C04F00A
:103D400007000DF51D7DBDE8F08F00BF000070413C
:103D50000000703E0000F03FF0570000B8F1000F87
:103D6000C0F2A5800DF5987A08F101040AEBC404AD
:103D70000020002174E9022300F08AFA5445F9D1A9
:103D8000069C002C49D0024601F100430B9EC6E977
:103D9000002302460B46DAE9000100F077FAB8F199
:103DA000000F07DD0AEBC808FAE9022300F070FAF9
:103DB000C245F9D1069C002C6AD00B9E024601F147
:103DC0000043C6E90223079C04F007000DF51D7DA2
:103DD000BDE8F08FB8F1000F66DB08F101044CADCF
:103DE00005EBC4040020002174E9022300F050FA1E
:103DF000AC42F9D1069C002C50D00B9E024601F13A
:103E00000043C6E90023079C04F007000DF51D7D63
:103E1000BDE8F08F00240025F4E602460B46B5E726
:103E20000123C2E510AE0A9C56F82830CDF81CA03C
:103E3000183C06950A94002B7FF48DAE06EB8803A0
:103E4000224653F8041D08F1FF38183A0029F8D02B
:103E50000A9280E6069C002000210DF5987A002C3D
:103E60007FF457AFDAE90023DAE902450B9EC6E991
:103E70000401C6E90023C6E902455FE7204629465A
:103E800000F052FE10AE039C46F82400A04662E605
:103E90000B9E02460B46C6E9022394E70B9E0246A0
:103EA0000B46C6E90023AEE700200021A2E7002070
:103EB00000210DF5987A63E70020002125E700BF77
:103EC0002DE9F04F21F00046B6F1795F85B0044648
:103ED0000D469046994604DA00F026FE002800F0D0
:103EE000848022462B462046294600F083FB22464A
:103EF0002B4606460F4600F07DFB3FA3D3E9002387
:103F000082468B463046394600F074FB3CA3D3E929
:103F1000002300F0BBF932463B4600F06BFB3AA3AE
:103F2000D3E9002300F0B4F932463B4600F062FBCF
:103F300037A3D3E9002300F0A9F932463B4600F04D
:103F400059FB35A3D3E9002300F0A2F90E9BCDE97C
:103F50000201002B33D0404649460022324B00F08C
:103F600049FBDDE90223CDE900015046594600F046
:103F700041FB02460B46DDE9000100F087F93246BD
:103F80003B4600F037FB42464B4600F07FF924A346
:103F9000D3E9002306460F465046594600F02AFB57
:103FA00002460B463046394600F072F902460B468F
:103FB0002046294600F06AF905B0BDE8F08FDDE93A
:103FC00002233046394600F015FB15A3D3E9002340
:103FD00000F05CF952465B4600F00CFB22462B4693
:103FE00000F056F905B0BDE8F08F2046294605B02F
:103FF000BDE8F08FAFF300807CD5CF5A3AD9E53DCC
:10400000EB9C2B8AE6E55A3E7DFEB157E31DC73E89
:10401000D561C119A0012A3FA6F810111111813FE5
:10402000495555555555C53F0000E03FAFF3008059
:1040300021F00041704700BF2DE9F84FC1F30A5746
:10404000A7F2FF36132E02460B4604460D4689465C
:104050008A4680461CDC002E40DB3D4F374107EA94
:10406000010C5CEA000C18D037A3D3E9002300F060
:104070000FF90022002300F04DFD28B1002D42DB96
:104080002AEA07094FF0000840464946BDE8F88F84
:10409000332E06DDB6F5806F31D010461946BDE8E7
:1040A000F88FA7F2134C4FF0FF3B2BFA0CFB1BEAE7
:1040B000000FF2D024A3D3E9002300F0E9F8002296
:1040C000002300F027FD0028DED0002D22DB28EAA7
:1040D0000B08D14640464946BDE8F88F1AA3D3E9FC
:1040E000002300F0D5F80022002300F013FD002883
:1040F000CAD0002D1CDB4FF00008C146C4E700F019
:10410000C7F8BDE8F88F4FF4801A4AFA06F606EBB6
:10411000050AB5E7142E14D0C7F5866701230337C7
:1041200003FA07F717EB040828BF05EB030ACEE7ED
:1041300025F00042074B224318BF99464FF0000874
:10414000A2E705F1010AC2E79C7500883CE4377ECE
:10415000FFFF0F000000F0BFC1F30A532DE9F0414B
:10416000904606460F460A461BBB21F00043034318
:1041700034D03B4B002200F03DFA3A4B98450646BE
:104180000F463BDBC1F30A53363B0A46434440F239
:10419000FE718B4216DD32463B462DA1D1E900016E
:1041A00000F066F82AA3D3E9002300F023FABDE863
:1041B000F08140F2FF74A34227D0434440F2FE71E5
:1041C0008B42E8DC002B0BDD22F0FF4222F4E00200
:1041D00042EA035730463946BDE8F081BDE8F08138
:1041E00013F1350F17DA4CF25033984532463B46FF
:1041F00020DC19A1D1E9000100F03AF816A3D3E9B7
:10420000002300F0F7F9BDE8F08102460B4600F00C
:104210003FF8BDE8F08122F0FF4222F4E00236339D
:1042200042EA03573046394600220F4B00F0E2F9CC
:10423000BDE8F08106A1D1E9000100F019F804A35E
:10424000D3E9002300F0D6F9BDE8F081AFF3008098
:104250009C7500883CE4377E59F3F8C21F6EA501B7
:1042600000005043B03CFFFF0000903CAFF30080E3
:1042700030B403F0004321F0004243EA020130BCB5
:10428000704700BF81F0004102E000BF83F00043AF
:1042900030B54FEA41044FEA430594EA050F08BFE1
:1042A00090EA020F1FBF54EA000C55EA020C7FEAA5
:1042B000645C7FEA655C00F0E2804FEA5454D4EB22
:1042C0005555B8BF6D420CDD2C4480EA020281EAEC
:1042D000030382EA000083EA010180EA020281EA24
:1042E0000303362D88BF30BD11F0004F4FEA013176
:1042F0004FF4801C4CEA113102D0404261EB410185
:1043000013F0004F4FEA03334CEA133302D052420A
:1043100063EB430394EA050F00F0A780A4F10104C6
:10432000D5F1200E0DDB02FA0EFC22FA05F2801800
:1043300041F1000103FA0EF2801843FA05F35941E6
:104340000EE0A5F120050EF1200E012A03FA0EFC65
:1043500028BF4CF0020C43FA05F3C01851EBE3718F
:1043600001F0004507D54FF0000EDCF1000C7EEBAC
:1043700000006EEB0101B1F5801F1BD3B1F5001FEA
:104380000CD349085FEA30004FEA3C0C04F1010409
:104390004FEA445212F5800F80F09A80BCF1004F32
:1043A00008BF5FEA500C50F1000041EB045141EAB4
:1043B000050130BD5FEA4C0C404141EB010111F4B5
:1043C000801FA4F10104E9D191F0000F04BF014660
:1043D0000020B1FA81F308BF2033A3F10B03B3F13E
:1043E00020020CDA0C3208DD02F1140CC2F10C02CE
:1043F00001FA0CF021FA02F10CE002F11402D8BF2C
:10440000C2F1200C01FA02F120FA0CFCDCBF41EAF7
:104410000C019040E41AA2BF01EB0451294330BDC6
:104420006FEA04041F3C1CDA0C340EDC04F11404A3
:10443000C4F1200220FA04F001FA02F340EA03007A
:1044400021FA04F345EA030130BDC4F10C04C4F1C0
:10445000200220FA02F001FA04F340EA03002946A0
:1044600030BD21FA04F0294630BD94F0000F83F4EA
:10447000801306BF81F480110134013D4EE77FEACD
:10448000645C18BF7FEA655C29D094EA050F08BF19
:1044900090EA020F05D054EA000C04BF19461046FA
:1044A00030BD91EA030F1EBF0021002030BD5FEA3E
:1044B000545C05D14000494128BF41F0004130BD66
:1044C00014F580043CBF01F5801130BD01F00045BA
:1044D00045F0FE4141F470014FF0000030BD7FEA2D
:1044E000645C1ABF194610467FEA655C1CBF0B4628
:1044F000024650EA013406BF52EA033591EA030F3F
:1045000041F4002130BD00BF90F0000F04BF002136
:10451000704730B54FF4806404F132044FF0000569
:104520004FF0000150E700BF90F0000F04BF0021E2
:10453000704730B54FF4806404F1320410F0004548
:1045400048BF40424FF000013EE700BF42004FEA43
:10455000E2014FEA31014FEA02701FBF12F07F43C0
:1045600093F07F4F81F06051704792F0000F14BFBD
:1045700093F07F4F704730B54FF4607401F0004501
:1045800021F0004120E700BF50EA010208BF704758
:1045900030B54FF000050AE050EA010208BF70474D
:1045A00030B511F0004502D5404261EB41014FF4B6
:1045B000806404F132045FEA915C3FF4DCAE4FF0BA
:1045C00003025FEADC0C18BF03325FEADC0C18BFA1
:1045D000033202EBDC02C2F1200300FA03FC20FAF2
:1045E00002F001FA03FE40EA0E0021FA02F114443F
:1045F000C1E600BF70B54FF0FF0C4CF4E06C1CEA54
:1046000011541DBF1CEA135594EA0C0F95EA0C0FC8
:1046100000F0DEF82C4481EA030621EA4C5123EA3B
:104620004C5350EA013518BF52EA033541F480116A
:1046300043F4801338D0A0FB02CE4FF00005E1FB1D
:1046400002E506F00042E0FB03E54FF00006E1FB67
:1046500003569CF0000F18BF4EF0010EA4F1FF04AA
:10466000B6F5007F64F5407404D25FEA4E0E6D41EA
:1046700046EB060642EAC62141EA55514FEAC520FB
:1046800040EA5E504FEACE2EB4F1FD0C88BFBCF577
:10469000E06F1ED8BEF1004F08BF5FEA500E50F128
:1046A000000041EB045170BD06F0004646EA0101EE
:1046B00040EA020081EA0301B4EB5C04C2BFD4EB20
:1046C0000C0541EA045170BD41F480114FF0000E19
:1046D000013C00F3AB8014F1360FDEBF002001F087
:1046E000004170BDC4F10004203C35DA0C341BDC01
:1046F00004F11404C4F1200500FA05F320FA04F0D3
:1047000001FA05F240EA020001F0004221F0004106
:1047100010EBD37021FA04F642EB06015EEA430E79
:1047200008BF20EAD37070BDC4F10C04C4F12005A9
:1047300000FA04F320FA05F001FA04F240EA02005C
:1047400001F0004110EBD37041F100015EEA430E2D
:1047500008BF20EAD37070BDC4F1200500FA05F24D
:104760004EEA020E20FA04F301FA05F243EA0203CC
:1047700021FA04F001F0004121FA04F220EA0200DB
:1047800000EBD3705EEA430E08BF20EAD37070BD21
:1047900094F0000F0FD101F00046400041EB010101
:1047A00011F4801F08BF013CF7D041EA060195F0E3
:1047B000000F18BF704703F00046520043EB03039D
:1047C00013F4801F08BF013DF7D043EA060370478A
:1047D00094EA0C0F0CEA135518BF95EA0C0F0CD095
:1047E00050EA410618BF52EA4306D1D181EA0301DB
:1047F00001F000414FF0000070BD50EA410606BFD5
:104800001046194652EA430619D094EA0C0F02D119
:1048100050EA013613D195EA0C0F05D152EA03365E
:104820001CBF104619460AD181EA030101F000417C
:1048300041F0FE4141F470014FF0000070BD41F0C5
:10484000FE4141F4780170BD70B54FF0FF0C4CF49F
:10485000E06C1CEA11541DBF1CEA135594EA0C0FBE
:1048600095EA0C0F00F0A7F8A4EB050481EA030E0B
:1048700052EA03354FEA013100F088804FEA0333F2
:104880004FF0805545EA131343EA12634FEA0222C0
:1048900045EA111545EA10654FEA00260EF0004181
:1048A0009D4208BF964244F1FD0404F5407402D2D3
:1048B0005B084FEA3202B61A65EB03055B084FEA64
:1048C00032024FF480104FF4002CB6EB020E75EB61
:1048D000030E22BFB61A754640EA0C005B084FEA89
:1048E0003202B6EB020E75EB030E22BFB61A754606
:1048F00040EA5C005B084FEA3202B6EB020E75EB51
:10490000030E22BFB61A754640EA9C005B084FEAC8
:104910003202B6EB020E75EB030E22BFB61A7546D5
:1049200040EADC0055EA060E18D04FEA051545EAC4
:1049300016754FEA06164FEAC30343EA52734FEA6D
:10494000C2025FEA1C1CC0D111F4801F0BD141EAE6
:1049500000014FF000004FF0004CB6E711F4801F4B
:1049600004BF01430020B4F1FD0C88BFBCF5E06F2B
:104970003FF6AFAEB5EB030C04BFB6EB020C5FEA3B
:10498000500C50F1000041EB045170BD0EF0004E90
:104990004EEA113114EB5C04C2BFD4EB0C0541EAC2
:1049A000045170BD41F480114FF0000E013C90E6BF
:1049B00045EA060E8DE60CEA135594EA0C0F08BF83
:1049C00095EA0C0F3FF43BAF94EA0C0F0AD150EA82
:1049D00001347FF434AF95EA0C0F7FF425AF104615
:1049E00019462CE795EA0C0F06D152EA03353FF43D
:1049F000FDAE1046194622E750EA410618BF52EABA
:104A000043067FF4C5AE50EA41047FF40DAF52EA8D
:104A100043057FF4EBAE12E74FF0FF3C06E000BF2A
:104A20004FF0010C02E000BF4FF0010C4DF804CD37
:104A30004FEA410C7FEA6C5C4FEA430C18BF7FEAF7
:104A40006C5C1BD001B050EA410C0CBF52EA430C25
:104A500091EA030F02BF90EA020F0020704710F1A5
:104A6000000F91EA030F58BF994208BF90422CBF34
:104A7000D8176FEAE37040F0010070474FEA410C2D
:104A80007FEA6C5C02D150EA013C07D14FEA430C4B
:104A90007FEA6C5CD6D152EA033CD3D05DF8040BBC
:104AA000704700BF8446104662468C4619466346EE
:104AB00000E000BF01B5FFF7B7FF002848BF10F1C5
:104AC000000F01BD4DF808EDFFF7F4FF0CBF01200A
:104AD00000205DF808FB00BF4DF808EDFFF7EAFF86
:104AE00034BF012000205DF808FB00BF4DF808ED41
:104AF000FFF7E0FF94BF012000205DF808FB00BF36
:104B00004DF808EDFFF7CEFF94BF012000205DF8BF
:104B100008FB00BF4DF808EDFFF7C4FF34BF0120CC
:104B200000205DF808FB00BF4FEA410212F50012B9
:104B300015D211D56FF47873B3EB625212D94FEAE4
:104B4000C12343F0004343EA505311F0004F23FACE
:104B500002F018BF404270474FF00000704750EA23
:104B6000013005D111F0004008BF6FF000407047E0
:104B70004FF00000704700BF4FEA4102B2F1E0433E
:104B800024BFB3F5001CDCF1FE5C0DD901F0004C34
:104B90004FEAC0024CEA5070B2F1004F40EB830084
:104BA00008BF20F00100704711F0804F21D113F1B0
:104BB0003872BCBF01F00040704741F480114FEAE9
:104BC0005252C2F11802C2F1200C10FA0CF320FA72
:104BD00002F018BF40F001004FEAC1234FEAD3238F
:104BE00003FA0CFC40EA0C0023FA02F34FEA4303F9
:104BF000CCE77FEA625307D150EA01331EBF4FF082
:104C0000FE4040F44000704701F0004040F0FE409C
:104C100040F40000704700BF80F0004002E000BF99
:104C200081F0004142001FBF5FEA410392EA030F97
:104C30007FEA226C7FEA236C6AD04FEA1262D2EBE1
:104C40001363C1BFD218414048404140B8BF5B42E6
:104C5000192B88BF704710F0004F40F4000020F07F
:104C60007F4018BF404211F0004F41F4000121F095
:104C70007F4118BF494292EA030F3FD0A2F10102DF
:104C800041FA03FC10EB0C00C3F1200301FA03F11D
:104C900000F0004302D5494260EB4000B0F5000F40
:104CA00013D3B0F1807F06D340084FEA310102F1FF
:104CB0000102FE2A51D2B1F1004F40EBC25008BFB1
:104CC00020F0010040EA03007047490040EB00007B
:104CD00010F4000FA2F10102EDD1B0FA80FCACF1AA
:104CE000080CB2EB0C0200FA0CF0AABF00EBC250A9
:104CF00052421843BCBFD0401843704792F0000F97
:104D000081F4000106BF80F400000132013BB5E7E9
:104D10004FEA41037FEA226C18BF7FEA236C21D05F
:104D200092EA030F04D092F0000F08BF08467047C4
:104D300090EA010F1CBF0020704712F07F4F04D192
:104D4000400028BF40F00040704712F100723CBFA5
:104D500000F50000704700F0004343F0FE4040F4CF
:104D6000000070477FEA226216BF08467FEA23638D
:104D70000146420206BF5FEA412390EA010F40F478
:104D8000800070474FF0000304E000BF10F00043C4
:104D900048BF40425FEA000C08BF704743F09643AB
:104DA00001464FF000001CE050EA010208BF7047C6
:104DB0004FF000030AE000BF50EA010208BF70474D
:104DC00011F0004302D5404261EB41015FEA010C62
:104DD00002BF84460146002043F0B64308BFA3F15A
:104DE0008053A3F50003BCFA8CF2083AA3EBC2533C
:104DF00010DB01FA02FC634400FA02FCC2F120025B
:104E0000BCF1004F20FA02F243EB020008BF20F091
:104E10000100704702F1200201FA02FCC2F12002F7
:104E200050EA4C0021FA02F243EB020008BF20EAEC
:104E3000DC7070474FF0FF0C1CEAD0521EBF1CEA1A
:104E4000D15392EA0C0F93EA0C0F6FD01A4480EA08
:104E5000010C400218BF5FEA41211ED04FF00063F1
:104E600043EA501043EA5111A0FB01310CF000401D
:104E7000B1F5000F3EBF490041EAD3715B0040EA43
:104E8000010062F17F02FD2A1DD8B3F1004F40EB13
:104E9000C25008BF20F00100704790F0000F0CF0E6
:104EA000004C08BF49024CEA502040EA51207F3AAA
:104EB000C2BFD2F1FF0340EAC250704740F4000085
:104EC0004FF00003013A5DDC12F1190FDCBF00F076
:104ED00000407047C2F10002410021FA02F1C2F124
:104EE000200200FA02FC5FEA310040F1000053EAC0
:104EF0004C0308BF20EADC70704792F0000F00F00E
:104F0000004C02BF400010F4000F013AF9D040EA13
:104F10000C0093F0000F01F0004C02BF490011F4A7
:104F2000000F013BF9D041EA0C018FE70CEAD153A5
:104F300092EA0C0F18BF93EA0C0F0AD030F0004C25
:104F400018BF31F0004CD8D180EA010000F00040D9
:104F5000704790F0000F17BF90F0004F084691F097
:104F6000000F91F0004F14D092EA0C0F01D14202D1
:104F70000FD193EA0C0F03D14B0218BF084608D19A
:104F800080EA010000F0004040F0FE4040F40000E4
:104F9000704740F0FE4040F4400070474FF0FF0C77
:104FA0001CEAD0521EBF1CEAD15392EA0C0F93EABE
:104FB0000C0F69D0A2EB030280EA010C49024FEA10
:104FC000402037D04FF0805343EA111143EA1013C9
:104FD0000CF000408B4238BF5B0042F17D024FF481
:104FE000000C8B4224BF5B1A40EA0C00B3EB510F5C
:104FF00024BFA3EB510340EA5C00B3EB910F24BF45
:10500000A3EB910340EA9C00B3EBD10F24BFA3EBC9
:10501000D10340EADC001B0118BF5FEA1C1CE0D191
:10502000FD2A3FF650AF8B4240EBC25008BF20F044
:10503000010070470CF0004C4CEA50207F32C2BF98
:10504000D2F1FF0340EAC250704740F400004FF035
:105050000003013A37E792F0000F00F0004C02BF66
:10506000400010F4000F013AF9D040EA0C0093F030
:10507000000F01F0004C02BF490011F4000F013B8A
:10508000F9D041EA0C0195E70CEAD15392EA0C0FF2
:1050900008D142027FF47DAF93EA0C0F7FF470AF2A
:1050A000084676E793EA0C0F04D14B023FF44CAF6D
:1050B00008466EE730F0004C18BF31F0004CCAD102
:1050C00030F000427FF45CAF31F000437FF43CAF3E
:1050D0005FE700BF4FF0FF3C06E000BF4FF0010C60
:1050E00002E000BF4FF0010C4DF804CD4FEA400242
:1050F0004FEA41037FEA226C18BF7FEA236C11D08C
:1051000001B052EA530C18BF90EA010F58BFB2EB3E
:10511000030088BFC81738BF6FEAE17018BF40F0BE
:10512000010070477FEA226C02D15FEA402C05D172
:105130007FEA236CE4D15FEA412CE1D05DF8040BF7
:10514000704700BF844608466146FFE70FB5FFF78A
:10515000C9FF002848BF10F1000F0FBD4DF808ED42
:10516000FFF7F4FF0CBF012000205DF808FB00BF33
:105170004DF808EDFFF7EAFF34BF012000205DF88D
:1051800008FB00BF4DF808EDFFF7E0FF94BF0120DA
:1051900000205DF808FB00BF4DF808EDFFF7D2FFD7
:1051A00094BF012000205DF808FB00BF4DF808ED1A
:1051B000FFF7C8FF34BF012000205DF808FB00BFE7
:1051C0004FEA4002B2F1FE4F0FD34FF09E03B3EB14
:1051D00012620DD94FEA002343F0004310F0004F54
:1051E00023FA02F018BF404270474FF000007047AA
:1051F00012F1610F01D1420205D110F0004008BF49
:105200006FF0004070474FF00000704770B50F4ED0
:105210000F4D761BB61007D0043D0024013455F81D
:10522000043F9847A642F9D10A4E0B4D761B00F079
:1052300007FBB61008D0043D0024013455F8043FA4
:105240009847A642F9D170BD70BD00BF4C58000010
:105250004C580000685800004C58000020F0030132
:1052600010F00300C0F1000051F8043B00F1040C01
:105270004FEACC0C6FF000021CBF22FA0CF2134371
:105280004FF0010C4CEA0C2C4CEA0C4CA3EB0C023A
:1052900022EA030212EACC1204BF51F8043B0430A4
:1052A000F4D013F0FF0F1FBF013013F47F4F013014
:1052B00013F47F0F18BF0130704700BF024B13B1CA
:1052C000024800F005B8704700000000DD52000001
:1052D000014600200246034600F018B838B5094DD3
:1052E000094C641BA41018BF05EB840505D0013CD4
:1052F00055F8043D9847002CF9D1BDE8384000F03E
:10530000B3BA00BF0000000000000000F0B5274C59
:105310002668D6F8484185B00746002C41D065681C
:105320001F2D1EDD224818B94FF0FF3005B0F0BD2B
:105330004FF4C870039102920193AFF30080039978
:10534000029A019B04460028EED0D6F84851256009
:10535000002060600546C6F84841C4F88801C4F8DA
:105360008C013FB9AB1C00200135656044F8231067
:1053700005B0F0BD04EB85004FF0010CC0F88820AB
:10538000D4F888610CFA05F21643022FC4F888613C
:10539000C0F80831E6D1D4F88C311A43C4F88C2116
:1053A000E0E706F5A674C6F84841B8E73C580000A7
:1053B000000000004008FE4340A004404408FE43B3
:1053C00044A004400018FE4300C004403000FE43E7
:1053D000309004403400FE43349004401C18FE43D7
:1053E0001CC004401018FE4310C004400818FE43BF
:1053F00008C004400C18FE430CC004400C10FE43CF
:105400000CB004401010FE4310B004401810FE43CE
:1054100018B004401C10FE431CB004401410FE439E
:1054200014B004400418FE4304C004400010FE43BE
:1054300000B004400008FE4300A004400408FE43FE
:1054400004A004400C08FE430CA004400808FE43DE
:1054500008A004401418FE4314C004401818FE436A
:1054600018C004400410FE4304B004400810FE437A
:1054700008B004401400FE43149004404C08FE435E
:105480004CA004400420FE4304D004402410FE43FA
:1054900024B004402010FE4320B004402810FE43F6
:1054A00028B004402C10FE432CB004400020FE43E2
:1054B00000D004404808FE4348A004401000FE43CA
:1054C0001090044000151915000100007487FF1F9B
:1054D0001200000000020000A087FF1F4300000030
:1054E00000030000FC87FF1F000000000103090407
:1054F0008887FF1F0000000002030904E487FF1FE4
:1055000000000000030309040088FF1F00000000E2
:10551000000000000000000000000000FFFFFFFF8F
:105520000000000000000000692C0000812C000039
:10553000392C0000492C0000412C0000512C0000A7
:10554000B52B0000CD2B0000ED2B0000F52B00004B
:10555000012C00000D2C0000192C0000292C00004B
:10556000592C0000612C0000852B0000912B0000BD
:105570009D2B0000A92B0000912C0000752C000031
:105580000000000000000000AD2D0000C52D00004F
:105590007D2D00008D2D0000852D0000952D000033
:1055A000F92C0000112D0000312D0000392D0000D4
:1055B000452D0000512D00005D2D00006D2D0000D7
:1055C0009D2D0000A52D0000C92C0000D52C000049
:1055D000E12C0000ED2C0000D52D0000B92D0000BD
:1055E0000000000000000000F12E0000092F000064
:1055F000C12E0000D12E0000C92E0000D92E0000BF
:105600003D2E0000552E0000752E00007D2E00005E
:10561000892E0000952E0000A12E0000B12E000062
:10562000E12E0000E92E00000D2E0000192E0000D2
:10563000252E0000312E0000192F0000FD2E000045
:105640000000000000000000712F00007D2F00000E
:10565000512F0000592F0000612F0000692F00001A
:10566000FB21F93FFB2109407CD91240FB21194065
:105670007A6A1F407CD92240BBFD2540FB2129408E
:105680003A462C407A6A2F405C4731407CD9324000
:105690009C6B3440BBFD3540DB8F3740FB213940EC
:1056A0001BB43A403A463C405AD83D407A6A3F40A3
:1056B0004C7E40405C4741406C1042407CD94240A7
:1056C0008CA243409C6B4440AC344540BBFD4540FC
:1056D000CBC64640DB8F4740EB584840FB21494052
:1056E00083F9A200444E6E00FC291500D157270013
:1056F000DD34F50062DBC0003C9995004190430029
:105700006351FE00BBDEAB00B761C5003A6E2400FA
:10571000D24D42004906E00009EA2E001C92D10059
:10572000EB1DFE0029B11C00E83EA700F535820004
:1057300044BB2E009CE98400B4267000417E5F00CB
:10574000D6913900538339009CF439008B5F840073
:1057500028F9BD00F81F3B00DEFF97000F980500F9
:10576000112FEF000A5A8B006D1F6D00CF7E36009F
:1057700009CB2700464FB7009E663F002DEA5F0029
:10578000BA277500E5EBC7003D7BF100F73907004C
:1057900092528A00FB6BEA001FB15F00085D8D002A
:1057A000300356007BFC4600F0AB6B0020BCCF0002
:1057B00036F49A00E3A91D005E619100081BE60023
:1057C00085996500A0145F008D40680080D8FF00B7
:1057D00027734D0006063100CA561500C9A873008C
:1057E0007BE260006B8CC000020000000300000040
:1057F000040000000600000000000040FB21F93F0B
:10580000000000002D44743E000000809846F83CE3
:105810000000006051CC783B00000080831BF03911
:105820000000004020257A38000000802282E33604
:10583000000000001DF36935430000001888FF1FB9
:10584000F8B500BFF8BC08BC9E467047BD520000CA
:105850003504000001050000AD2C0000F12D000012
:08586000352F00008D2F000020
:04586800F8B500BFD0
:10586C000500000008000000FFFFFFFF0A0401090B
:10587C000A0000001201000202000040C01683045E
:10588C0000010102030100001803540065006500CB
:10589C006E00730079006400750069006E006F0083
:1058AC0009024300020100C0320904000001020297
:1058BC000100052400100105240101010424020645
:1058CC0005240600010705820310004009040100AD
:1058DC00020A0000000705030240000007058402CD
:1058EC0040000000160355005300420020005300F6
:1058FC0065007200690061006C000000040309047B
:10590C000C0300000000000000000000000000007C
:10591C00000000000000000000000000048BFF1FCE
:10592C006C8BFF1FD48BFF1F0000000000000000D9
:10593C00000000000000000000000000000000005B
:10594C0000000000000000000000000038580000BB
:10595C00000000000000000000000000000000003B
:10596C00000000000000000000000000000000002B
:10597C00000000000000000000000000000000001B
:10598C00000000000000000000000000000000000B
:10599C0000000000000000000000000000000000FB
:1059AC0000000000000000000000000000000000EB
:1059BC0000000000000000000000000000000000DB
:1059CC0001000000000000000E33CDAB34126DE678
:1059DC00ECDE05000B0000000000000000000000E1
:1059EC0000000000000000000000000000000000AB
:1059FC00000000000000000000000000000000009B
:105A0C00000000000000000000000000000000008A
:105A1C00000000000000000000000000000000007A
:00000001FF
