:1000000000800020BD010000FD170000B5170000B2
:10001000B5170000B5170000B5170000B5170000B0
:10002000B5170000B5170000B5170000FD17000058
:10003000FD170000B51700003D1D0000411E000027
:10004000FD170000FD170000FD170000FD17000060
:10005000FD170000FD170000FD170000FD17000050
:10006000FD170000FD170000FD170000FD17000040
:10007000FD170000FD170000FD170000FD17000030
:10008000FD170000FD170000FD170000FD17000020
:10009000FD170000FD170000FD170000FD17000010
:1000A000FD170000FD170000FD170000FD17000000
:1000B000FD170000FD170000FD170000FD170000F0
:1000C000FD170000FD170000FD170000FD170000E0
:1000D000FD170000FD170000FD170000FD170000D0
:1000E000FD170000FD170000FD170000FD170000C0
:1000F000FD170000AD180000FD170000D919000021
:10010000FD170000051B0000FD170000FD17000093
:10011000FD170000FD170000FD170000FD1700008F
:10012000FD170000FD170000FD170000FD1700007F
:10013000FD170000FD170000FD170000FD1700006F
:10014000FD170000FD170000FD170000FD1700005F
:10015000FD170000FD170000FD170000FD1700004F
:10016000FD1700006D090000FD170000FD170000DD
:10017000FD170000FD170000FD170000FD1700002F
:10018000FD170000FD170000FD170000FD1700001F
:10019000FD170000FD170000FD170000FD1700000F
:1001A000FD170000FD170000FD170000FD170000FF
:1001B000FD170000FD170000FD170000564B4CF224
:1001C000205210B51A804DF628121A8000BF00BFC9
:1001D00001F018FB514B4FF010621A60504A9A60C0
:1001E000504ADA60504A136813F4807304D14F49BF
:1001F0000B604FF4A85313604D4B1A78110703D5C9
:100200001A7842F008021A704A4B4B492A221A7097
:100210004A4A4B4B8B4204D252F8040F43F8040B6A
:10022000F8E7484B484900228B4202D243F8042B9E
:10023000FAE74649464A002352F8230041F82300D2
:1002400001336F2BF8D1434B434A802103F8011B44
:100250009342FBD1414B3D4A1A60414B8A221A70AE
:10026000A3F5805324225A70A0221A709A7992071B
:10027000FCD59A79D406FCD43A4A937903F00C035E
:10028000082B384BF9D105221A7143225A719A79F9
:100290009006FCD5334A9179324B4906FBD5324A58
:1002A0004FF0817111600521516020221A709A79F6
:1002B00002F00C020C2AFAD12C4B2D4A1A602D4B5D
:1002C0002D4A1A6000225A60072243F8042C2B4A58
:1002D000C3F80C2D62B600F021FA144B1B68DA0744
:1002E00005D5274800F09EF9264B274A1A60274B70
:1002F0001B785B0609D5234C234B22689A4204D114
:100300001F4800F08FF90023236001F0ADFD01F0DC
:100310007FFA01F073F9FEE70E20054030800440BB
:10032000823F04000100002B10D0034014D0034092
:1003300002D0074000E007401C90FF1FAC290000DE
:100340002087FF1F1C90FF1F2C93FF1F0082FF1FA1
:100350000000000000E400E05FE400E008ED00E0E1
:1003600000500640004006404480044004800440A1
:10037000C010050014E000E03F190100000020203B
:1003800093ECEC591CE00340A5C3945A00F00740DD
:10039000FFFFFFFFFFFFFFFFFFFFFFFFFFFFFFFF6D
:1003A000FFFFFFFFFFFFFFFFFFFFFFFFFFFFFFFF5D
:1003B000FFFFFFFFFFFFFFFFFFFFFFFFFFFFFFFF4D
:1003C000FFFFFFFFFFFFFFFFFFFFFFFFFFFFFFFF3D
:1003D000FFFFFFFFFFFFFFFFFFFFFFFFFFFFFFFF2D
:1003E000FFFFFFFFFFFFFFFFFFFFFFFFFFFFFFFF1D
:1003F000FFFFFFFFFFFFFFFFFFFFFFFFFFFFFFFF0D
:10040000FFFFFFFFFFFFFFFFFFFFFFFFDEF9FFFF23
:1004100010B5054C237833B9044B13B10448AFF33E
:1004200000800123237010BD1C90FF1F00000000FE
:10043000B0290000084B10B51BB108490848AFF3BC
:1004400000800848036803B910BD074B002BFBD0A0
:10045000BDE81040184700BF000000002090FF1FBB
:10046000B02900001C90FF1F00000000704700BF73
:1004700070B5C5B20E462846012100F0F9F8002EED
:1004800013DD00240121284600F0DEF84FF4FA6065
:1004900000F0F4F80021284600F0D6F801344FF4BB
:1004A000FA6000F0EBF8A642ECD170BD08B501216E
:1004B000242000F0DDF800212420BDE8084000F0F1
:1004C000C3B800BF38B50121052000F0D1F80021E4
:1004D000052000F0B9F81F20002100F0C9F81F2006
:1004E00000F0B8F870B1184A1849194D194C137832
:1004F000002BFCD00B789B07F9D02B6820681B1AC7
:10050000182BF4D90621144800F064FF134801F0B9
:1005100065F896212420FFF7ABFF1321104800F067
:1005200059FF0E4801F05AF8FFF7C0FF4FF4FA7078
:1005300000F0A4F826210B4800F04CFF0748BDE866
:10054000384001F04BB800BF1C91FF1F3491FF1FD2
:100550003890FF1F2493FF1FBC2700002487FF1F34
:10056000C4270000D827000010B40F4B53F83020E8
:1005700092F880422CB1012369B182F8803010BC1E
:10058000704703EBC0035B681A6841B922F00202AE
:100590001A6010BC704782F8003110BC704742F0FE
:1005A00003021A6010BC7047002800001C4A02EBCE
:1005B000C00301295B6811D004291BD052F8300018
:1005C000002280F8802229B1022920D0032922D0DC
:1005D0001A6070474FF480721A60704752F830000A
:1005E0004FF4A27280F880121A601A6822F020027A
:1005F0001A60704752F830104FF4A272012081F84F
:1006000080021A601A6842F020021A60704740F2B5
:1006100003121A6070474FF481721A60704700BF6E
:100620000028000030B4054B054D064C0022102177
:100630001A602A602060196030BC704714D00340F3
:1006400004D0034000D00340212801D8FFF78CBF1D
:10065000704700BF212806D8044B53F8303093F878
:100660000002C0B270470020704700BF00280000A1
:10067000212801D8FFF79ABF704700BF2DE9F84342
:10068000054672B6214F224B224A1B683C6812680D
:1006900062B6520102D5322B88BF0134A5B3C3F52F
:1006A0008C331D4EDFF86890DFF8688003F23F134B
:1006B0004FF47A72A6FB031302FB04F404EB131449
:1006C00072B6D9F800103A68D8F800E062B6C1F501
:1006D0008C3303F23F13A6FB03031EF0806FC4EBC1
:1006E00013134FF47A7002D0322988BF013200FB15
:1006F0000233B3F57A7F04D3013D05D004F57A7453
:10070000DEE700F099FFDBE7BDE8F8833890FF1FD4
:1007100018E000E004ED00E0398EE338F8B52D4B29
:100720002D49DFF8D0E0DFF8D0C02C4E2C4D2D4CF9
:100730002D4A2E4F4FF4000018604FF08070186063
:100740004FF0007018604FF0806018604FF000604C
:10075000186000200860282348F6FF71CCF80010CC
:10076000CEF80030336013602B6023603B60B362CF
:100770009362092245F8242CC4F8D80F05F57F654B
:10078000C7F8D41F07F5FF2707F5FA67C6F8F83F43
:100790002B6006F5FF26C4F8D42F05F5FD2504F5DA
:1007A000FF24386006F2F4761148316005F5FF65E4
:1007B00004F5FD642B602360026000F08BFF3220A3
:1007C000FFF75CFF00F0FEFC4FF4AF70BDE8F840AF
:1007D000FFF754BF08E100E00480034014800340A9
:1007E000248003402C8003401C800340348003405D
:1007F00000800B400C80034008800340431E032B05
:1008000014D872B60A4951F8230068B170B4094C83
:10081000058834F81320466841F82360521B24F8F9
:10082000132062B670BC704762B6704700207047F4
:100830009490FF1F1493FF1F013803280BD872B642
:10084000074B53F8203043B100205B680130002B88
:10085000FBD162B67047002070471846F9E700BF29
:10086000E890FF1FF0B472B61A491B4E012311F82D
:10087000014B194F9A00240742F0010505D556F89F
:10088000324064B156F83520BAB10133052BEED1B0
:1008900062B6124B00221A70F0BC00F00FBD0F4C74
:1008A0000F4D217847F8325007EB431308304A1EAA
:1008B0005860227062B6F0BC70470849094B0A784C
:1008C00047F8353007EBC5030830013A58600A7025
:1008D00062B6F0E73C2900000080FF1F1191FF1F66
:1008E00088004000C8004000431E032B1DD81B4A4F
:1008F000400140F0100030B4104472B6184CE25C75
:10090000032A1BD8DFE802F00212151703220D8814
:10091000E25410F0080F14BFC823882343EA0543AC
:1009200008310360416062B630BC70470830022273
:10093000EDE70522EBE708300422E8E7094A52F820
:10094000230038B1084A52F82300416042F82310CE
:1009500062B6E9E742F82310034AF7E70080FF1F79
:100960002091FF1FE890FF1FF890FF1F2DE9F04F27
:10097000DFF804A3DFF804B387B044E0A94F4FEADF
:10098000930807EBC809013ED9F8042003F00803D7
:10099000F6B2A2F1080003F0FF04002B40F0FE8045
:1009A00057F838301B0C99B222F8081C002B00F0C5
:1009B000EC809D4B22F8064C42F8044C53F826205C
:1009C000002A00F02B82994D55F826305860984C3B
:1009D00045F8260034F81630194424F8161000F0B3
:1009E0004DFC002800F01382924A934B19F0080F37
:1009F00000F1080018BF1346C9F8040047F8383062
:100A000008238AF800309AF80040E4B260071AD54B
:100A10008A4B1B78A3B18A490A7802F0FF0322B1FE
:100A2000013BDBB20B7003B900BE86490A7802F0C5
:100A3000FF032AB1013BDBB20B70002B00F0BD813C
:100A400004238AF8003004F0080303F0FF02002BAF
:100A500000F0C8809BF80030DBB21E098ED19C08E4
:100A6000704F57F8342007EBC401C2F38302013AF8
:100A700049680C2A00F28580DFE802F079798383E7
:100A80008383838342838383070008686E4B6F4DA3
:100A90000193684B4A686E4E47F8343081B240F299
:100AA0008164694B6A60286000220120A1421A60BB
:100AB0003A61BA61307000F2E380B1F5D06F80F036
:100AC0002782B1F5817F00F0E08100F2C3818029A7
:100AD00000F03682822940F0DE81A9885D4B01F06A
:100AE0007F01042900F2D8815B4C89000B442270FD
:100AF00062701A78930740F122832070022023E26B
:100B0000514B01931A683AB3544B514E54491888CB
:100B100034780D784028864645F0020828BF4FF00B
:100B2000400E002C84F001043470CEEB00000CBFAA
:100B30008824C82407EBC80680B285F0010544EA82
:100B40000E447260188047F8384072440D700028D7
:100B500000F0B780019B1A603C4B1A88B2F5A06F79
:100B60000FD100219A7859703E4B1A7009E0374A2C
:100B7000108842F22102904200F0A8802D4A47F8E6
:100B80003420394A012313703AE72A4A2A4B19F0D4
:100B9000080F18BF134647F8383031E700F08EFBD6
:100BA000324A334952F82630002B00F03B81586816
:100BB0008C5D42F8260003F10802C9F80420032CDA
:100BC00005D8DFE804F02C02292602228A551A886B
:100BD00019F0080F0CBF8823C82343EA024347F8E3
:100BE00038300DE7E00700F1EB80210600F12881A5
:100BF000A20706D51F4A204913780220DBB21370E2
:100C00000870E30602D51C4B10221A7007B0BDE82D
:100C1000F08F04228A55DAE705228A55D7E70322A6
:100C20008A55D4E70080FF1F9490FF1F4090FF1F5C
:100C30001493FF1FC8004000880040001C91FF1F54
:100C4000A590FF1F2491FF1F3C90FF1F0891FF1FDD
:100C5000A490FF1FC02007401491FF1F5090FF1F5A
:100C60001091FF1F9820074094200740E890FF1F35
:100C70002091FF1F882007408020074090200740D8
:100C800042F22104A14200F0948043D8B1F5086FEC
:100C900000F0A881B1F5106F40F0FD80B84AB94C62
:100CA000A978117004F1800503E00834AC4200F02B
:100CB0009E81236A1906F8D5606A083800F0FEFAAA
:100CC000F3E7BEF1400F18BF002243E7AE4ACD1D47
:100CD00011F8013B02F8013FA942F9D1AB4A126871
:100CE000862A00F01181AA49AA4E0A78307882F04B
:100CF0000105002842F002020D700CBF8821C821B6
:100D000047F8321007EBC20280F00100002130707A
:100D1000516033E742F22124A14240F0FE81DFF826
:100D2000BCC29D4B9D49AC78DCF800501D608146EB
:100D30000C700020029080468446044694490D7849
:100D400045F0020E07EBCE03B9F1000F5C600CBF5B
:100D50008824C82444EA080385F0010447F83E309B
:100D600032700C70DFF81CE28A4BDFF82482002816
:100D700040F09880BCF1400F1BD144F0020407EB17
:100D8000C403029FDFF8FCE15F60002A40F09F800F
:100D9000020442F0880207444EF8342086F800909E
:100DA0000D703B46402804D100207D4A01991080F7
:100DB0000B607C4A01231370E3E600F0EBFB3FE697
:100DC000704B784872491A614FF0020E80F800E0CB
:100DD000754F0A70754919609960754E754D764C5E
:100DE0009A610D213970FF213170DFF8F4E129702B
:100DF0002270724D724A8EF800109F27012406F867
:100E0000047C5D600470DA6007B0BDE8F08F6D4A65
:100E100047F83800137801331370F1E543F82600E2
:100E2000694DD4E58B5D032B67D801A252F823F0FE
:100E3000010A0000010A0000850E00007F0E00007C
:100E400059495C4B80220D2008701A70A2077FF56B
:100E5000D8AECFE640F20232914240F05681A988E6
:100E600001F07F01042916D86A88A2B94E4C890086
:100E70000C448146217841F00201217059E7012399
:100E80008B55BDE500238B55BAE5A98801F07F019C
:100E9000042940F24781444B0F221A70414A012332
:100EA00013706EE640287FF668AF44F002040EEB44
:100EB000C401029E4E60AAB1444A83F800903346B2
:100EC000403888F8005040334EF834206DE7020473
:100ED000029B86F8009042F0C8020D7003444EF861
:100EE00034205FE783F80090029B304A88F8005076
:100EF000403840334EF8342057E719F0080F0CBF44
:100F0000022303238B557BE5314A0F211170EAE65A
:100F1000304A5468002CBED06888B5F804E003E07D
:100F20000C325468002CB6D013888342F8D1538811
:100F30007345F5D1000A03280CBF2078108903E01F
:100F4000254C022022706270EA88824280F00C8177
:100F50000F490D78402A45F0020E944607EBCE006B
:100F600028BF4FF0400C04EB0C0344600293CCEB21
:100F700002004FEA0C484FF001090022C824E9E6BC
:100F80001C91FF1F0080FF1F1B93FF1F1C93FF1F5F
:100F90001091FF1FA490FF1F2493FF1F3491FF1F88
:100FA0005090FF1F94200740C02007408800400059
:100FB0008820074080200740982007405490FF1F5A
:100FC000A890FF1F1191FF1F4090FF1FC800400015
:100FD000A590FF1F402900001491FF1F3890FF1FAC
:100FE0008C200740684A694C12782270ACE7684947
:100FF000684B694A02916949694C6A4D03940596A8
:101000004FF0000988461C4616460495206828B112
:10101000456800F053F92846002DF9D100232360DC
:10102000049B30681A46002342F8293028B14568ED
:1010300000F044F92846002DF9D100223260029ACE
:1010400098F800301146002241F8042B039A0291CF
:10105000023B4FF0000122F81910032B07D8DFE8FC
:1010600003F0340234024FF0010388F8003009F134
:101070000109B9F1040F04F1040406F1040608F1B2
:101080000108C3D1484B059EDFF83091DFF830816D
:1010900000211970012518F8013B09F8043B1A07D3
:1010A00018D4AC0044F0020244F00304002347F8D3
:1010B000323047F834303D4B994505F10105EAD10E
:1010C00096F8009089F0010233E64FF0000388F8AB
:1010D0000030CCE700F0D2F8AC0007EB451300F18C
:1010E0000802002837D05A60314B47F8343000F0FE
:1010F000C5F844F0010307EBC30200F1080100B397
:1011000051602C4A47F83320CCE7B1F5A06F7FF44B
:10111000C2AE00224FF001090BE642F221329142A9
:10112000F7D0B8E66A88002A7FF4B5AE224C890071
:101130000C448146217821F002012170F9E502205A
:1011400002E7194B44F001021B7847F83200164AB7
:1011500001331370A6E7144B134A1B78AC0001331C
:1011600047F834001370C2E74028844628BF4FF088
:10117000400C04EB0C03CCEB00004FEA0C4802934C
:1011800000224FF00109D9E51C91FF1F1491FF1FA8
:10119000F890FF1F9490FF1FE890FF1F2091FF1F02
:1011A0001493FF1F4090FF1F1191FF1FD420074091
:1011B00088004000C8004000C0200740C42007400D
:1011C0003C2900002DE9F843204C00F007FD0022E7
:1011D00004F1880023461A605A60083383424FF0B6
:1011E0000001F8D11A4A1B4F13681B4D1B481C4EB7
:1011F000DFF87880DFF878C0DFF87890DFF878E003
:1012000043F480231360C4F307233B70C4F3074304
:101210002B70240EFF2302F528320470114D88F83C
:10122000003011488CF80030D4323370012389F833
:10123000003070268EF800104FF40074102107F86B
:10124000183C2E7004601170BDE8F8830080FF1F09
:10125000348004409C200740B0200740B420074061
:101260001020074049E400E008E100E0802007404A
:1012700088200740942007400021074072B60D489F
:101280000268B2FA82F30B2B10DC4FF00041D94018
:1012900022EA0102026062B6074803EBC303DB00E7
:1012A000C2180021C15010465160704762B600203C
:1012B000704700BF2087FF1FBC83FF1F0D4B0E4AE6
:1012C000C31AA2FB03231B090B2B0CD80B4A127861
:1012D00052B972B60A484FF00041026821FA03F38E
:1012E0001A43026062B67047064A1278002AF0D0AC
:1012F000FFF7B8BABC83FF1F398EE3381191FF1F87
:101300002087FF1F1C91FF1F38B50F4D286878B14B
:1013100043880288C118013393420C7A02D2438079
:10132000204638BDFFF7CAFF002320462B6038BD9A
:10133000064B1B782BB10320FFF760FA28600028CA
:10134000E6D14FF0FF3038BD3091FF1F1C91FF1FD9
:1013500010B5094C206818B143881844007A10BDB4
:10136000064B1B782BB10320FFF748FA20600028BA
:10137000F2D14FF0FF3010BD3091FF1F1C91FF1FC5
:10138000044B054A1B6890881BB11A885B88D31AE6
:10139000184470473091FF1F1493FF1F0B4B1B78AD
:1013A0009BB110B50A4C206848B1FFF787FF0023B6
:1013B00003202360FFF722FA30B1FFF77FFF0320FD
:1013C000FFF71CFA0028F8D110BD70471C91FF1FD1
:1013D0003091FF1F2DE9F04FDFF8F89083B0012224
:1013E00089F80020019169B3DFF8EC80364F019E47
:1013F0008346D8F80000B0B3344D4488C4F14001AE
:10140000B14228BF314604EB010E00221FFA8EFEC6
:101410002A70761AA0F802E000F1080251B1013CEE
:10142000224459441BF8014B02F8014F8B45F9D176
:10143000B0F802E0BEF13F0F0BD8254A052111702C
:10144000002ED6D10198002389F8003003B0BDE802
:10145000F08F4022028001460420FFF745FA002267
:10146000C8F80020E9E73A782AB3184D48F6014455
:101470004FF0010A07E0013C16D02A78A2B900F02B
:10148000DBF83A78BAB10420FFF7D6F90728F2D88A
:1014900089F800A0FFF7F2FEC8F800000028ACD1E0
:1014A0000C4B013C1870E8D101234FF0FF302B703A
:1014B00003B0BDE8F08F00234FF0FF3089F8003013
:1014C00003B0BDE8F08F00BF1C91FF1F2C91FF1FE0
:1014D0002491FF1F2591FF1F2891FF1F00B583B0A6
:1014E00002AB012103F8010D1846FFF773FF03B0AB
:1014F0005DF804FB38B50E4D0E4C286801232370AF
:1015000028B1408800232370C0F1400038BD0A4B49
:101510001B7813B90020207038BD0420FFF78CF928
:101520000728F7D8FFF7AAFE28600028E9D1F1E7DD
:101530002891FF1F2591FF1F1C91FF1FF8B5114B2C
:101540001B788BB1104E114D346801272F7064B198
:101550000F4A638800271770214623800420FFF775
:10156000C3F9376000232B70F8BDFFF787FE084BE7
:1015700028B1014604201C70FFF7B6F9F2E71F708E
:10158000F0E700BF1C91FF1F2891FF1F2591FF1F4F
:101590002491FF1F38B50E4B1B7873B90D4C216891
:1015A00061B103F0FF054B880B800420FFF79CF925
:1015B000256038BD084B01221A7038BDFFF75EFE6A
:1015C0000028F7D00146BDE838400420FFF78CB969
:1015D0002591FF1F2891FF1F2491FF1F00B5064A88
:1015E000036812885B6883B001A9ADF80420022269
:1015F000984703B05DF804FB1029000008B5FEF71A
:1016000061FFFEF733FF00F017F8FAE7FFF7C6BEF9
:10161000FFF79EBEFFF778BEFFF7B2BEFFF78EBFA3
:10162000FFF768BF08461146FFF7D4BE0846FFF72C
:1016300055BF00BF704700BF38B5224C237803B1B7
:1016400038BD01232370FFF79BFE70BB00F01EF92D
:1016500040BB00F0B1F910BB00F044FAE0B9002340
:101660002370EFF30583002BEAD1EFF3108172B6FC
:10167000154B1868E0B1154C2278CAB945691D6050
:1016800001232370C5B1AA6101B962B6002545776F
:10169000836898472570D3E700F0DEFBDFE700F0B2
:1016A000D9FBD9E700F0D4FBD3E7FFF7C3FFCDE7C1
:1016B0000029C5D162B638BD054B1D600029E5D1B2
:1016C000E3E700BF3591FF1FD492FF1FD892FF1FA1
:1016D000D092FF1F30B42948294A2A4B2A4D602452
:1016E000E121047011701B78284C082B30D00A2B94
:1016F0002748284937D00C2B0CBF15223D22122336
:101700002A60236002600B60234B24491B78244A23
:10171000BBB101230B601360224B23491B78234A82
:10172000012B26D9042B0FD9082B1ED9102B94BFBF
:10173000862387230B6013601D4B01221A7030BC77
:1017400070470B601360E7E784230B601360F3E7D7
:1017500000F58E200F490830012213232A602360F0
:1017600002600B60D0E71922F7E785230B60136056
:10177000E2E780230B601360DEE700BF0040074014
:10178000014007403487FF1F08B003400CB00340FE
:1017900008B00B400CB00B403791FF1F20B0034046
:1017A00020B00B403587FF1F24B0034024B00B400E
:1017B0003691FF1F08B5104C08E0236859050DD479
:1017C00023681A050FD42368DB0411D42368580357
:1017D000F3D5FFF7CBF823685905F1D500F066F88B
:1017E00023681A05EFD500F0F7F82368DB04EDD580
:1017F00000F088F9EAE700BF3480044008B5FFF73D
:10180000D9FF00BF014B10221A807047002005400D
:10181000704700BF094908B50B6830B16A461844E3
:10182000A2F58052904202D20860184608BD00F02E
:1018300015FB0C2303604FF0FF3008BD3887FF1FF6
:10184000F0B44D1E2E46002400E00134B0FBF2F34C
:1018500002FB1300092800F130078ABF3730F8B2C5
:10186000C0B206F8010F1846002BEED10A195370CA
:101870004CB1107815F8016F28700133E01A8342DB
:1018800002F80169F5DB0846F0BC7047054A064BD3
:1018900010781B78C0B2DBB2984238BF4030C01A13
:1018A000704700BF3C91FF1F3D91FF1FF0B4384BC4
:1018B0001A7912F0300F2CD072B6997D01F0FF0228
:1018C00000293DD062B6334F334938780D78334E16
:1018D0001C46C0B2EDB2431C402BE17928BF002367
:1018E000AB4202F1FF32C9B21CBFF154184612F0EC
:1018F000FF02F0D12A4B1B68C2B23A704BB1A8422A
:1019000036BFC5F14005401B40192728C4BF01223E
:101910001A701F49CA78D2B2150616D452060DD5D0
:101920001B4B1B795B0609D51E4B1F491B68002208
:101930000A7003B11A70164B3C22DA70F0BC704783
:101940004022D9795A7462B6E3E70B791C06E5D5D3
:10195000164B174E1C783378E4B2DBB29C420ED0A3
:10196000144D01E0A3420AD00133402B28BF0023CD
:101970000879E85CC0B2C871087D0728F2D9DBB2EB
:10198000034933700B79180644BF7C23CB70C5E73D
:1019900000A006403C91FF1F3D91FF1F8091FF1F5B
:1019A0003891FF1FC491FF1FC091FF1FC891FF1FF7
:1019B000C191FF1F4091FF1F054A064B10781B780D
:1019C000C0B2DBB2984238BF4030C01A704700BF87
:1019D0003C92FF1FD191FF1FF0B4384B1A7912F0DF
:1019E000300F2CD072B6997D01F0FF0200293DD056
:1019F00062B6334F334938780D78334E1C46C0B247
:101A0000EDB2431C402BE17928BF0023AB4202F129
:101A1000FF32C9B21CBFF154184612F0FF02F0D1D8
:101A20002A4B1B68C2B23A704BB1A84236BFC5F10F
:101A30004005401B40192728C4BF01221A701F49C6
:101A4000CA78D2B2150616D452060DD51B4B1B7997
:101A50005B0609D51E4B1F491B6800220A7003B1A3
:101A60001A70164B3C22DA70F0BC70474022D979CC
:101A70005A7462B6E3E70B791C06E5D5164B174E90
:101A80001C783378E4B2DBB29C420ED0144D01E0F6
:101A9000A3420AD00133282B28BF00230879E85C31
:101AA000C0B2C871087D0728F2D9DBB20349337090
:101AB0000B79180644BF7C23CB70C5E700B0064005
:101AC0003C92FF1FD191FF1FFC91FF1FCC91FF1F84
:101AD0004092FF1FD091FF1F4492FF1F3D92FF1FB6
:101AE000D491FF1F054A064B10781B78C0B2DBB2B9
:101AF000984238BF4030C01A704700BF4C92FF1F59
:101B00004D92FF1F30B42B4B1A7994061FD52A48EB
:101B1000DA790378294901333F2B0978C8BF0023BC
:101B20008B42D2B203D0264CD9B2E2540170254A7E
:101B3000116861B1244A1278D2B2934236BFC2F121
:101B400040029B1A9B18272BC4BF01230B70194A14
:101B5000D378DBB2180611D45A060DD5154B1B7974
:101B60005B0609D5194B1A491B6800220A7003B19C
:101B70001A70104B2C22DA7030BC704711790906AC
:101B8000EAD5144910480C780178C9B28C420DD0BE
:101B90004A1C272A84BF00210A460F4D054C98BFD6
:101BA000D1B2AA5CD2B2E2710170D5E76C21D170DA
:101BB000D2E700BF00C006404C92FF1F4D92FF1FAE
:101BC0007892FF1F4892FF1FB992FF1FBC92FF1F20
:101BD000B892FF1FC092FF1F5092FF1F70B584B0D4
:101BE00072B6194B194D1A48702241260F248021D4
:101BF0001A702E701A460470197013781B06FCD5E3
:101C0000144B186862B6144B144C984298BF00EB02
:101C1000800001A998BF40000A22FFF711FE01A928
:101C20002046002311F8012B01333AB10A2B20F88A
:101C3000022FF7D11623237004B070BD5B00DBB216
:101C4000237004B070BD00BF0000024007000240D6
:101C500006000240080002407F969800C887FF1FD8
:101C600010B4EFF3108272B6437F33B9017F0129BC
:101C700007D003290FD00123437702B962B610BC05
:101C80007047124C2168A1B1114943610B6883610F
:101C900008605861EFE70F4C216881B10E4943613C
:101CA0000B688361086058610C4B4FF080511960DC
:101CB000E1E7074B4161816120601860DBE7064B7B
:101CC0004161816120601860EEE700BFD492FF1F80
:101CD000D092FF1FC492FF1FC892FF1F04ED00E0C7
:101CE00010B4047F4160022CC26002D010BCFFF728
:101CF000B7BF836810BC184770B5EFF3108272B697
:101D00000C4C206880B10C4E00254369236073B1F0
:101D10009D6102B962B6457783689847EFF31082F8
:101D200072B620680028F0D102B962B670BD336087
:101D3000EFE700BFC492FF1FC892FF1FFFF7DCBF91
:101D4000184A30B41468002C27D0036821688B42ED
:101D50000ED2CB1A00218460C1602360E060106065
:101D60000223037530BC704711688B42144608D3B8
:101D7000A2685B1A0360002AF6D18260C460A0608A
:101D8000EEE7D268C2608460E060C568CB1A0222C8
:101D9000A8602360027530BC70478460C460106026
:101DA000DEE700BFCC92FF1FF8B5224E34682CB39B
:101DB0002368002B3AD1204F1D4604E03468ECB173
:101DC0002368002B32D1A36803B1DD602069336042
:101DD000036825751B68BB4221D1037F4560022B38
:101DE000C46020D0FFF73CFF6368002BE6D023607F
:101DF0002046FFF7A5FF3468002CE1D1EFF31083F4
:101E000072B60E4A00211068116003B962B628B19B
:101E10008468FFF795FF20460028F9D1F8BD2246D7
:101E200000219847E0E783689847DDE7013B23609E
:101E3000E4E700BFCC92FF1FE11C0000DC92FF1F13
:101E4000024A136801331360FFF7AEBF3890FF1FDB
:101E5000704700BF704700BF704700BF014B186854
:101E6000704700BF088CFF1F70B50F4E0F4D761BDB
:101E7000B61018BF002405D0013455F8043B98472C
:101E8000A642F9D10A4E0B4D761B00F085FDB61027
:101E900018BF002406D0013455F8043B9847A642E9
:101EA000F9D170BD70BD00BFA4290000A4290000B5
:101EB000AC290000A4290000024B0146186800F07C
:101EC00003B800BF088CFF1F2DE9F04F01F10B058F
:101ED000162D83B0064640F29F8035F0070500F1CD
:101EE000BF80A94200F2BC8000F0A6FAB5F5FC7FE5
:101EF000C0F09C826B0A00F0BA80042B00F2838150
:101F0000A80900F1390E4FEA4E033830C44F07EBF1
:101F10008303A3F108015C68A14207D1ACE0002A69
:101F200080F2AC80E468A14200F0A680636823F0F0
:101F300003035A1B0F2AF2DDB9493C6901F1080E6F
:101F4000744500F0B381636823F003035A1B0F2A22
:101F500000F39981002AC1F814E0C1F810E080F282
:101F60009E80B3F5007F80F06781DB0803F1010CF0
:101F700001229B1002FA03F34A6851F83C80C4F82E
:101F8000088001EBCC091A43A9F10803E3604A6019
:101F900041F83C40C8F80C40831001249C40944216
:101FA00000F28A80144206D120F00300640014423B
:101FB00000F10400FAD007EBC009CC468046DCF8FB
:101FC0000C108C4507D173E1002A80F28181C96829
:101FD0008C4500F06D814B6823F003035A1B0F2AD8
:101FE000F2DD0C46D1F80CC054F8088F4B1945F0BF
:101FF00001054D6042F00101C8F80CC03046CCF834
:1020000008807B613B61C3F80CE0C3F808E05960CD
:102010009A5000F013FA1FE0102921D800F00CFAB2
:102020001025062302207E4F07EB8303A3F108024D
:102030005C68944200F045816368E168A56823F01C
:102040000303234430465A68E96042F001028D6080
:102050005A6000F0F3F90834204603B0BDE8F08F71
:1020600000240C232046336003B0BDE8F08F8023AA
:102070004FF0400E3F2049E770465DE72344E1689A
:102080005A68A56842F00102E96030468D605A60E6
:1020900000F0D4F90834204603B0BDE8F08F2344A3
:1020A00030465A6842F001025A6000F0C7F908341D
:1020B000204603B0BDE8F08FBC68636823F00308D6
:1020C000A84504D3C5EB08030F2B00F38C80554BB8
:1020D000DFF860911A68D9F8003001332A4404EB24
:1020E000080A00F0608102F580520F3222F47F620C
:1020F00022F00F0211463046019200F0A1F9B0F132
:10210000FF3F8346019A00F05881824500F2FC802F
:10211000454B1968DA451144196000F05381D9F82C
:102120000000DFF810E101301BBFCAEB0B0A51447D
:10213000CEF800B019601BF0070100F01781C1F163
:102140000800C1F58051834408315A44C2F30B02A0
:10215000C2EB010949463046019300F071F9431C76
:10216000019B00F03F81CBEB00024A4442F00102A8
:102170001968C7F808B04944BC42CBF8042019607C
:10218000DFF8A49016D0B8F10F0F40F2FD8062681E
:10219000A8F10C0323F00703E01802F001024FF04E
:1021A000050E1A430F2B6260C0F804E0C0F808E087
:1021B00000F21C811D4BBC681A68914288BF1960EF
:1021C0001B4B1A689142626888BF196022F00302B3
:1021D0009542A2EB050301D80F2B04DC304600F03A
:1021E0002DF9002438E7621943F0010345F0010599
:1021F00065603046BA60536000F020F9083420462C
:1022000003B0BDE8F08F142B71D9542B00F2A480D9
:10221000280B00F16F0E4FEA4E036E3076E600BFDA
:102220000C8CFF1FE892FF1FEC92FF1FE492FF1F30
:10223000E092FF1F1890FF1F5A0A042A5ED9142A41
:1022400000F2B38002F15C0149005B3207EB810CC4
:1022500057F82110DFF8DC81ACF1080C8C4500F058
:1022600088804A6822F00302934202D289688C4532
:10227000F7D1D1F80CC07A68C4F80CC0A160CCF8D2
:102280000840CC6088E6631942F0010745F001057B
:10229000656030464B610B61C3F80CE0C3F808E0A1
:1022A0005F609A50083400F0C9F8D5E64A6873E6D2
:1022B00008F1010818F0030F0CF1080C7FF47FAE51
:1022C00030E0DC68A34208BF02303FF435AEB3E62D
:1022D0000B440C465A68C96854F8085F42F0010282
:1022E0005A603046E9608D6000F0A8F8B4E603F16A
:1022F0005C0E03F15B004FEA4E0307E69A0902F118
:10230000390149003832A1E7BC424A4B3FF400AFE3
:102310009C68626822F003025AE759F80839994527
:1023200040F0828010F0030F00F1FF30F5D17B68A0
:1023300023EA04037B6064009C423FF6BDAE002CA0
:102340003FF4BAAE1C4240467FF435AE64001C42F6
:1023500000F10400FAD02EE6B3F5AA7F18D8E80BF6
:1023600000F1780E4FEA4E037730CFE54FF48051FD
:10237000EBE60121D8F80430921001FA02F21A4378
:10238000C8F80420614677E70123CBF8043025E73D
:1023900040F25452934220D8A80C00F17D0E4FEA2F
:1023A0004E037C30B2E51032A4E6542A26D81A0B2C
:1023B00002F16F0149006E3248E7BC68626822F0A2
:1023C000030205E7CAF30B0000287FF4A8AE4244DD
:1023D000BB6842F001025A60ECE6FE234FF07F0E2C
:1023E0007E2093E501224FF00009C1E604F10801C7
:1023F000304600F0A9F8D9F80010DBE6B2F5AA7F64
:1024000005D8DA0B02F17801490077321EE740F275
:1024100054518A4205D89A0C02F17D0149007C3260
:1024200014E7FE217E2211E77B6884E7E808431C5D
:102430005B00F8E50C8CFF1F704700BF704700BFC2
:1024400038B5074C0023054608462360FFF7E2F93C
:10245000431C00D038BD2368002BFBD02B6038BD57
:102460002893FF1F024B13B1024800F005B87047D4
:102470000000000085240000002301461A4618468B
:1024800000F04AB938B5074D074C2C1BA41005D0F5
:10249000013C55F8043D9847002CF9D1BDE838407F
:1024A00000F084BA0000000000000000F8B5234FDF
:1024B0000C460646FFF7C0FFBB685D6825F00305C4
:1024C000291B01F6EF7121F47F6121F00F01A1F5C5
:1024D0008054B4F5805F07DB00213046FFF7B0FF82
:1024E000BB682B44984204D03046FFF7A7FF00207A
:1024F000F8BD61423046FFF7A3FF01300DD0104B0D
:10250000BA6819682D1B45F001053046091B556056
:102510001960FFF793FF0120F8BD00213046FFF757
:102520008FFFBA68831A0F2BDEDD064C044924683E
:1025300043F00103001B53600860D5E70C8CFF1FBC
:10254000EC92FF1F1890FF1F002945D02DE9F041A4
:102550000D468046FFF770FF55F8047C6A4927F066
:102560000103A5F10804E2188E685068B24220F019
:10257000030062D0FE0750600BD455F8087CE41BC2
:1025800001F1080EA56875453B446FD0E768EF6020
:10259000BD6015186D68ED0742D543F00102626019
:1025A000E350B3F5007F18D2DB085A1C4D6851F890
:1025B0003270A76001209B1000FA03F301EBC20008
:1025C0001D430838E0604D6041F83240FC604046F1
:1025D000BDE8F041FFF732BF70475A0A042A53D8CA
:1025E0009A0902F139077F0002F1380501EB8700F3
:1025F00051F827204449083890424DD0516821F0C5
:1026000003018B4202D292689042F7D1D068E06019
:10261000A2608460D4604046BDE8F041FFF70EBF81
:1026200095683A4FBD4203443FD0D068E86043F01C
:10263000010285606260E350B3E7FF07034407D4FB
:1026400055F8082CA41A1344A068E268C260906090
:102650002F4A126843F00100934260608C60B6D349
:102660002C4B40461968FFF721FFB0E71118496865
:10267000C90744D49168D268CA60034443F001009A
:1026800091606060E350A2E7142A17D802F15C075A
:102690007F0002F15B05A9E7AA104B68012505FA46
:1026A00002F213434B600246B1E743F001024C6172
:1026B0000C61E560A5606260E35088E7542A06D8A3
:1026C0001A0B02F16F077F0002F16E058EE7B2F57B
:1026D000AA7F06D8DA0B02F178077F0002F17705AE
:1026E00084E740F25450824206D89A0C02F17D07EA
:1026F0007F0002F17C0579E7FE277E2576E743F02F
:1027000001026260E35062E70C8CFF1F148CFF1F14
:102710001490FF1FE892FF1F2DE9F047254C256814
:10272000D5F848410646884692469946C4B3606843
:102730001F2817DC431C76B104EB80050122C5F885
:1027400088A0D4F8881182401143022EC4F8881161
:10275000C5F808911ED00230636044F82080002044
:10276000BDE8F087144B03B34FF4C870FFF7A4FB28
:102770000446D0B1D5F84831002780E88800C5F874
:10278000484138460123C4F88871C4F88C71002E82
:10279000E1D0D1E7D4F88C110A43C4F88C21DAE7F0
:1027A00005F5A674C5F84841C1E74FF0FF30BDE814
:1027B000F08700BF94290000B91E00005741535311
:1027C000555000005368757474696E6720646F77A4
:1027D0006E2C2062726F2E005568206F682E204983
:1027E0002073686F756C6420686176652073687506
:1027F0007420646F776E206279206E6F772E0000F0
:102800004008FE4340A004404408FE4344A0044066
:102810000018FE4300C004403000FE4330900440E6
:102820003400FE43349004401C18FE431CC0044096
:102830001018FE4310C004400818FE4308C00440AE
:102840000C18FE430CC004400C10FE430CB00440B6
:102850001010FE4310B004401810FE4318B004409E
:102860001C10FE431CB004401410FE4314B004407E
:102870000418FE4304C004400010FE4300B00440AE
:102880000008FE4300A004400408FE4304A00440E6
:102890000C08FE430CA004400808FE4308A00440B6
:1028A0001418FE4314C004401818FE4318C0044016
:1028B0000410FE4304B004400810FE4308B0044076
:1028C0001400FE43149004404C08FE434CA0044006
:1028D0000420FE4304D004402410FE4324B00440EE
:1028E0002010FE4320B004402810FE4328B00440CE
:1028F0002C10FE432CB004400020FE4300D00440C6
:102900004808FE4348A004401000FE4310900440D5
:102910000D0AFFFF00000000000000002D1600005F
:1029200025160000211600001D16000019160000D3
:1029300015160000111600000D16000000151915DF
:10294000000100003C87FF1F120000000002000091
:102950006887FF1F4300000000030000C487FF1FBB
:1029600000000000010309045087FF1F0000000061
:1029700002030904AC87FF1F0000000003030904E1
:10298000C887FF1F000000000000000000000000DA
:1029900000000000E087FF1FF8B500BFF8BC08BCCE
:0C29A0009E4670476524000035040000CE
:0429AC00F8B500BFBB
:1029B000FFFFFFFF1C29000000000000E8030000EB
:1029C000000000000A0400002C93FF1F1201010107
:1029D00002000040C016830400020102030100004F
:1029E00018035400650065006E00730079006400F0
:1029F000750069006E006F0009024300020100C00B
:102A00003209040000010202010005240010010542
:102A100024010101042402060524060001070582A1
:102A20000310004009040100020A0000000705032A
:102A30000240000007058402400000001603550014
:102A400053004200200053006500720069006100DD
:102A50006C000000040309040C03000000000000E7
:102A60000000000000000000000000000000000066
:102A700000000000CC8AFF1F348BFF1F9C8BFF1FC0
:102A80000000000000000000000000000000000046
:102A90000000000000000000000000000000000036
:102AA0000000000000000000000000000000000026
:102AB0000000000000000000000000000000000016
:102AC0000000000000000000000000000000000006
:102AD00000000000000000000000000000000000F6
:102AE00000000000000000000000000000000000E6
:102AF00000000000000000000000000000000000D6
:102B000000000000000000000000000000000000C5
:102B100000000000000000000100000000000000B4
:102B20000E33CDAB34126DE6ECDE05000B00000079
:102B30000000000000000000000000000000000095
:102B40000000000000000000000000000000000085
:102B50000000000000000000000000000000000075
:102B60000000000000000000000000000000000065
:102E90000000000000000000E087FF1F00000000AD
:102EA000000000000C8CFF1F0C8CFF1F148CFF1FF8
:102EB000148CFF1F1C8CFF1F1C8CFF1F248CFF1FFA
:102EC000248CFF1F2C8CFF1F2C8CFF1F348CFF1FAA
:102ED000348CFF1F3C8CFF1F3C8CFF1F448CFF1F5A
:102EE000448CFF1F4C8CFF1F4C8CFF1F548CFF1F0A
:102EF000548CFF1F5C8CFF1F5C8CFF1F648CFF1FBA
:102F0000648CFF1F6C8CFF1F6C8CFF1F748CFF1F69
:102F1000748CFF1F7C8CFF1F7C8CFF1F848CFF1F19
:102F2000848CFF1F8C8CFF1F8C8CFF1F948CFF1FC9
:102F3000948CFF1F9C8CFF1F9C8CFF1FA48CFF1F79
:102F4000A48CFF1FAC8CFF1FAC8CFF1FB48CFF1F29
:102F5000B48CFF1FBC8CFF1FBC8CFF1FC48CFF1FD9
:102F6000C48CFF1FCC8CFF1FCC8CFF1FD48CFF1F89
:102F7000D48CFF1FDC8CFF1FDC8CFF1FE48CFF1F39
:102F8000E48CFF1FEC8CFF1FEC8CFF1FF48CFF1FE9
:102F9000F48CFF1FFC8CFF1FFC8CFF1F048DFF1F98
:102FA000048DFF1F0C8DFF1F0C8DFF1F148DFF1F45
:102FB000148DFF1F1C8DFF1F1C8DFF1F248DFF1FF5
:102FC000248DFF1F2C8DFF1F2C8DFF1F348DFF1FA5
:102FD000348DFF1F3C8DFF1F3C8DFF1F448DFF1F55
:102FE000448DFF1F4C8DFF1F4C8DFF1F548DFF1F05
:102FF000548DFF1F5C8DFF1F5C8DFF1F648DFF1FB5
:10300000648DFF1F6C8DFF1F6C8DFF1F748DFF1F64
:10301000748DFF1F7C8DFF1F7C8DFF1F848DFF1F14
:10302000848DFF1F8C8DFF1F8C8DFF1F948DFF1FC4
:10303000948DFF1F9C8DFF1F9C8DFF1FA48DFF1F74
:10304000A48DFF1FAC8DFF1FAC8DFF1FB48DFF1F24
:10305000B48DFF1FBC8DFF1FBC8DFF1FC48DFF1FD4
:10306000C48DFF1FCC8DFF1FCC8DFF1FD48DFF1F84
:10307000D48DFF1FDC8DFF1FDC8DFF1FE48DFF1F34
:10308000E48DFF1FEC8DFF1FEC8DFF1FF48DFF1FE4
:10309000F48DFF1FFC8DFF1FFC8DFF1F048EFF1F93
:1030A000048EFF1F0C8EFF1F0C8EFF1F148EFF1F40
:1030B000148EFF1F1C8EFF1F1C8EFF1F248EFF1FF0
:1030C000248EFF1F2C8EFF1F2C8EFF1F348EFF1FA0
:1030D000348EFF1F3C8EFF1F3C8EFF1F448EFF1F50
:1030E000448EFF1F4C8EFF1F4C8EFF1F548EFF1F00
:1030F000548EFF1F5C8EFF1F5C8EFF1F648EFF1FB0
:10310000648EFF1F6C8EFF1F6C8EFF1F748EFF1F5F
:10311000748EFF1F7C8EFF1F7C8EFF1F848EFF1F0F
:10312000848EFF1F8C8EFF1F8C8EFF1F948EFF1FBF
:10313000948EFF1F9C8EFF1F9C8EFF1FA48EFF1F6F
:10314000A48EFF1FAC8EFF1FAC8EFF1FB48EFF1F1F
:10315000B48EFF1FBC8EFF1FBC8EFF1FC48EFF1FCF
:10316000C48EFF1FCC8EFF1FCC8EFF1FD48EFF1F7F
:10317000D48EFF1FDC8EFF1FDC8EFF1FE48EFF1F2F
:10318000E48EFF1FEC8EFF1FEC8EFF1FF48EFF1FDF
:10319000F48EFF1FFC8EFF1FFC8EFF1F048FFF1F8E
:1031A000048FFF1F0C8FFF1F0C8FFF1F148FFF1F3B
:1031B000148FFF1F1C8FFF1F1C8FFF1F248FFF1FEB
:1031C000248FFF1F2C8FFF1F2C8FFF1F348FFF1F9B
:1031D000348FFF1F3C8FFF1F3C8FFF1F448FFF1F4B
:1031E000448FFF1F4C8FFF1F4C8FFF1F548FFF1FFB
:1031F000548FFF1F5C8FFF1F5C8FFF1F648FFF1FAB
:10320000648FFF1F6C8FFF1F6C8FFF1F748FFF1F5A
:10321000748FFF1F7C8FFF1F7C8FFF1F848FFF1F0A
:10322000848FFF1F8C8FFF1F8C8FFF1F948FFF1FBA
:10323000948FFF1F9C8FFF1F9C8FFF1FA48FFF1F6A
:10324000A48FFF1FAC8FFF1FAC8FFF1FB48FFF1F1A
:10325000B48FFF1FBC8FFF1FBC8FFF1FC48FFF1FCA
:10326000C48FFF1FCC8FFF1FCC8FFF1FD48FFF1F7A
:10327000D48FFF1FDC8FFF1FDC8FFF1FE48FFF1F2A
:10328000E48FFF1FEC8FFF1FEC8FFF1FF48FFF1FDA
:10329000F48FFF1FFC8FFF1FFC8FFF1F0490FF1F89
:0C32A0000490FF1F00000200FFFFFFFF72
:00000001FF
